:1000000000000420190200000102000003020000A9
:1000100005020000070200000902000000000000C5
:100020000000000000000000000000000B020000C3
:100030000D020000000000000F020000110200008D
:10004000130200001302000021300500853E050068
:100050001302000013020000192F05001302000014
:10006000130200001302000013020000130200003C
:10007000130200001302000013020000130200002C
:100080001302000041670500130200001302000084
:10009000130200001302000013020000130200000C
:1000A00013020000130200001302000013020000FC
:1000B0001302000013020000000000000000000016
:1000C00013020000130200001302000013020000DC
:1000D00013020000130200001302000013020000CC
:1000E00013020000130200001302000000000000D1
:1000F00000000000130200000000000013020000D6
:1001000000000000000000000000000000000000EF
:1001100000000000000000000000000000000000DF
:1001200000000000000000000000000000000000CF
:1001300000000000000000000000000000000000BF
:1001400000000000000000000000000000000000AF
:10015000000000000000000000000000000000009F
:10016000000000000000000000000000000000008F
:10017000000000000000000000000000000000007F
:10018000000000000000000000000000000000006F
:10019000000000000000000000000000000000005F
:1001A000000000000000000000000000000000004F
:1001B000000000000000000000000000000000003F
:1001C000000000000000000000000000000000002F
:1001D000000000000000000000000000000000001F
:1001E000000000000000000000000000000000000F
:1001F00000000000000000000000000000000000FF
:10020000FEE7FEE7FEE7FEE7FEE7FEE7FEE7FEE7C6
:10021000FEE7FEE700F002B8FFF7FCBF0F484FF023
:100220000701884385460E4880470E48016841F41F
:1002300070010160BFF34F8FBFF36F8F00F01AB8EA
:1002400009480A490A4A884207D0521A05D0037859
:1002500001300B700131013AF9D1704700000420E0
:10026000A507000088ED00E03CAD0500000000207F
:1002700000000020344935480A1A02D00722914371
:100280008D46334933480A1A06D00722914381F339
:100290000988022282F314882F483049304A00F03E
:1002A00041F830483049314A00F03CF83048314993
:1002B000314A00F037F831483149324A00F032F81B
:1002C00031483249324A00F02DF832483249334A37
:1002D00000F028F832483349334A00F023F8334815
:1002E0003349002200F029F832483349002200F057
:1002F00024F832483249091A5AF0A2FC314A904790
:100300001F482049884205D00268043003B4904752
:1003100003BCF7E700208646EC46002000212A4A6D
:100320009047FEE7884207D0521A05D00378013083
:100330000B700131013AF9D17047884202D0027046
:100340000130FAE7704700000000042000E00320BD
:1003500000000420000004201C950600000000207E
:10036000640C0020CC030000CC030000C0AC0500EE
:100370001C95060000000020000000203CAD050098
:100380003CAD05003CAD05003CAD05003CAD0500B5
:100390003CAD05003CAD05003CAD05001A950600DE
:1003A00080A10600640C0020640C0020640C002076
:1003B000303600203036002034360020343600201D
:0C03C000345600204102000059040000E7
:1003CC0000B585B00190019B002B0AD0074B43F080
:1003DC0001030393019B9B010293039B0298984793
:1003EC0000E000BF05B05DF804FB00BFF0AD0500F8
:1003FC0000B583B00190019B002B0AD04FF47A70AA
:10040C00FFF7DEFF019B013B0193019B002BF5D114
:10041C0000E000BF03B05DF804FB4FF08043012205
:10042C00C3F818254FF080430022C3F804214FF085
:10043C00804301229A6000BF4FF08043D3F804310F
:10044C00002BF9D000BF00BF7047000000B585B08D
:10045C00FFF7E3FF55F00EFD0390039B0293029B05
:10046C00002B04D0244A2721029855F0F9F94FF4B7
:10047C008041002057F0DAFC0190019B002B04D046
:10048C001D4A2921019855F0EBF957F051FC1B4AF4
:10049C001B4BD31ADB081B0443F003031949184602
:1004AC0057F08EFF00F0F0FA00F01CFB134A144BCF
:1004BC00D31ADB081B0443F003031349184657F007
:1004CC007FFF51F08FFF0D4A0D4BD31ADB081B0435
:1004DC0043F003030D49184657F072FF00BF57F065
:1004EC00E1FF0346002BFAD14FF47A70FFF780FF3F
:1004FC0000F04AFBF3E700BF3CAD0500E8AC05009B
:10050C00C0AC050078AD0500A8AD0500C8AD050070
:10051C00BFF34F8F00BF064BDB6803F4E062044966
:10052C00044B1343CB60BFF34F8F00BF00BFFDE7FD
:10053C0000ED00E00400FA0582B0124B1B68019339
:10054C00114B1B680093019B082B17D1009B032BAD
:10055C0012D801A252F823F07505000079050000AD
:10056C007D05000081050000012308E0012306E061
:10057C00012304E0012302E0012300E000231846DC
:10058C0002B07047300100103401001082B0124BE1
:10059C001B680193114B1B680093019B082B17D10F
:1005AC00009B032B12D801A252F823F0C9050000BE
:1005BC00CD050000D1050000D5050000012308E0A1
:1005CC00012306E0012304E0012302E0012300E003
:1005DC000023184602B0704730010010340100109F
:1005EC0082B0124B1B680193114B1B680093019B4B
:1005FC00082B17D1009B032B12D801A252F823F021
:10060C001D0600002106000025060000290600003A
:10061C00012308E0002306E0002304E0002302E0AD
:10062C00002300E00023184602B070473001001090
:10063C003401001082B0124B1B680193114B1B68E4
:10064C000093019B082B17D1009B032B12D801A2FE
:10065C0052F823F0710600007506000079060000C0
:10066C007D060000012308E0002306E0002304E0DF
:10067C00002302E0002300E00023184602B070477C
:10068C00300100103401001082B0124B1B68019332
:10069C00114B1B680093019B082B17D1009B032B5C
:1006AC0012D801A252F823F0C5060000C9060000BA
:1006BC00CD060000D1060000012308E0002306E06F
:1006CC00002304E0002302E0002300E0002318468E
:1006DC0002B07047300100103401001082B0124B90
:1006EC001B680193114B1B680093019B082B17D1BE
:1006FC00009B032B12D801A252F823F0190700001B
:10070C001D0700002107000025070000012308E059
:10071C00002306E0002304E0002302E0002300E0B5
:10072C000023184602B0704730010010340100104D
:10073C0082B0124B1B680193114B1B680093019BF9
:10074C00082B17D1009B032B12D801A252F823F0CF
:10075C006D070000710700007507000079070000A5
:10076C00012308E0012306E0012304E0012302E059
:10077C00012300E00023184602B07047300100103E
:10078C0034010010024B034A1A6000BF704700BFCF
:10079C00000000200090D00308B5FFF7CDFE034603
:1007AC00002B0ED04FF080430022C3F80C214FF0E9
:1007BC0080430022C3F810214FF080430022C3F87D
:1007CC003825FFF7E3FE0346002B76D04FF080531D
:1007DC007D4AD3F80434C2F820354FF080537A4A5E
:1007EC00D3F80834C2F824354FF08053764AD3F846
:1007FC000C34C2F828354FF08053734AD3F81034B8
:10080C00C2F82C354FF080536F4AD3F81434C2F829
:10081C0030354FF080536C4AD3F81834C2F8343565
:10082C004FF08053684AD3F81C34C2F840354FF06F
:10083C008053654AD3F82034C2F844354FF08053C6
:10084C00614AD3F82434C2F848354FF080535E4ADD
:10085C00D3F82834C2F84C354FF080535A4AD3F8A9
:10086C002C34C2F850354FF08053574AD3F83034FB
:10087C00C2F854354FF08053534AD3F83434C2F88D
:10088C0060354FF08053504AD3F83834C2F8643591
:10089C004FF080534C4AD3F83C34C2F868354FF0D3
:1008AC008053494AD3F84034C2F86C354FF080532A
:1008BC00454AD3F84434C2F87035FFF791FE03462D
:1008CC00002B02D0414B424A1A60FFF7B3FE03469D
:1008DC00002B03D03F4BFB22C3F81825FFF7D4FEA7
:1008EC000346002B0AD03C4B1B6823F00F023B4BFA
:1008FC001B6803F00F03384913430B60FFF7EEFE40
:10090C000346002B03D0364B4FF400721A60FFF7EE
:10091C000FFF0346002B0DD04FF08043D3F800346B
:10092C0003F00103002B05D04FF080436FF0010260
:10093C00C3F800242B4BD3F888302A4A43F47003B5
:10094C00C2F88830BFF34F8F00BFBFF36F8F00BF6B
:10095C004FF01023D3F80032002B05DB4FF010239F
:10096C00D3F80432002B2BDA1F4B0122C3F80425D9
:10097C0000BF1D4BD3F80034002BFAD04FF01023DE
:10098C001222C3F8002200BF174BD3F80034002BFF
:10099C00FAD04FF010231222C3F8042200BF124BDE
:1009AC00D3F80034002BFAD00F4B0022C3F80425E7
:1009BC0000BF0D4BD3F80034002BFAD0FFF7A8FD85
:1009CC00FFF7E0FE00BF08BD00C000408C560040A1
:1009DC004881030000F00040E40E00405802001073
:1009EC004096024000ED00E000E0014000487047F6
:1009FC0028360020FEE7FEE700B583B00190019B8E
:100A0C000433184652F008FE00BF03B05DF804FB37
:100A1C0000B589B0059003921A460B468DF8133039
:100A2C0013468DF8123000230793059B181D9DF873
:100A3C0012209DF813109DF8283000931346039A4A
:100A4C0053F030F90790079B184609B05DF804FB8A
:100A5C0000B587B0039001921A460B468DF80B3007
:100A6C0013468DF80A3000230593039B181D9DF83F
:100A7C000A309DF80B10019A53F03CF90590059B38
:100A8C00184607B05DF804FB00B587B06B46002232
:100A9C001A605A609A60DA601B2300931A23019340
:100AAC004FF0CC73029302238DF80C30694600236F
:100ABC0000220A4851F006FF0590059B0493049B05
:100ACC00002B04D0064A2921049854F0C9FE03488F
:100ADC00FFF792FF00BF07B05DF804FBF8AD05000F
:100AEC0008AE050000B583B00DF1070319460F20C1
:100AFC0000F0D2F99DF80730332B0ED01C4A1D4B59
:100B0C00D31ADB081B0443F003009DF80730332293
:100B1C00194957F074FC002326E0154A154BD31ADB
:100B2C00DB081B0443F0030333221449184657F027
:100B3C0055FC052000F0F2F9002000F049FA0120E4
:100B4C0000F022FA002000F067FA094A094BD31A88
:100B5C00DB081B0443F003030949184657F030FC2B
:100B6C00084B01221A700123184603B05DF804FBF0
:100B7C00E8AC0500C0AC05005CAE05008CAE050011
:100B8C00A4AE0500700C002000B587B000230593BF
:100B9C000DF11303184600F09CFA9DF81330002B4E
:100BAC0000F0338103AB06220021184659F026FFD2
:100BBC0003AB184600F0A3FABDF90C30184600F050
:100BCC0095F9B0EE407ADFED996AC7EE267A984B2C
:100BDC00C3ED007ABDF90E30184600F087F9B0EE7F
:100BEC00407ADFED926AC7EE267A914BC3ED017A1B
:100BFC00BDF91030184600F079F9B0EE407ADFED0F
:100C0C008B6AC7EE267A8A4BC3ED027A894A8A4BE5
:100C1C00D31ADB081B0443F00300854BD3ED007A99
:100C2C00F5EEC07AF1EE10FA0BD5814BD3ED007ACC
:100C3C00BFEE007AF4EEC77AF1EE10FA01DD7F4ACE
:100C4C0000E07F4A7A4BD3ED007AFDEEE77A17EE9F
:100C5C00901A774BD3ED007AF5EEC07AF1EE10FADC
:100C6C000CDD734B93ED007A714BD3ED007AFDEEF6
:100C7C00E77AF8EEE77A77EE677A0BE06C4BD3ED18
:100C8C00007AFDEEE77AB8EEE77A694BD3ED007A9D
:100C9C0077EE677A9FED6B7A67EE877AFDEEE77AEF
:100CAC0017EE903A00930B46674957F0BCFB614A2C
:100CBC00614BD31ADB081B0443F003005C4BD3EDF0
:100CCC00017AF5EEC07AF1EE10FA0BD5584BD3ED54
:100CDC00017ABFEE007AF4EEC77AF1EE10FA01DD7C
:100CEC00564A00E0564A524BD3ED017AFDEEE77AB4
:100CFC0017EE901A4E4BD3ED017AF5EEC07AF1EE69
:100D0C0010FA0CDD4A4B93ED017A494BD3ED017A85
:100D1C00FDEEE77AF8EEE77A77EE677A0BE0444B74
:100D2C00D3ED017AFDEEE77AB8EEE77A404BD3EDDE
:100D3C00017A77EE677A9FED437A67EE877AFDEE5C
:100D4C00E77A17EE903A00930B46404957F06BFB4D
:100D5C00384A394BD31ADB081B0443F00300344BDD
:100D6C00D3ED027AF5EEC07AF1EE10FA0BD5304BDA
:100D7C00D3ED027ABFEE007AF4EEC77AF1EE10FAF8
:100D8C0001DD2E4A00E02E4A294BD3ED027AFDEE0E
:100D9C00E77A17EE901A264BD3ED027AF5EEC07A6D
:100DAC00F1EE10FA0CDD224B93ED027A204BD3EDD1
:100DBC00027AFDEEE77AF8EEE77A77EE677A0BE0E7
:100DCC001B4BD3ED027AFDEEE77AB8EEE77A184BBF
:100DDC00D3ED027A77EE677A9FED1A7A67EE877A0F
:100DEC00FDEEE77A17EE903A00930B46184957F050
:100DFC001AFB104A104BD31ADB081B0443F00303F5
:100E0C000F49184657F0DCFA0AE00A4A0A4BD31A83
:100E1C00DB081B0443F003030E49184657F0D0FAC5
:100E2C00059BDBB2184607B05DF804FB00007A4462
:100E3C00640C0020E8AC0500C0AC0500C0AE050099
:100E4C00C4AE05000000C842C8AE0500D8AE05000F
:100E5C00E8AE0500F8AE050000B587B00346029178
:100E6C008DF80F300023ADF814309DF80F308DF84D
:100E7C001430029B1B788DF8153005AA00230093C3
:100E8C00022319210348FFF7C3FD0346184607B098
:100E9C005DF804FBF8AD050000B587B00346029180
:100EAC008DF80F300DF10F0200230093012319214F
:100EBC000C48FFF7ADFD0123029A19210948FFF7F1
:100ECC00C7FD0590059B0493049B002B04D0064A98
:100EDC00A421049854F0C4FC059B184607B05DF897
:100EEC0004FB00BFF8AD050008AE050082B0034658
:100EFC00ADF80630BDF9063007EE903AB8EEE77A59
:100F0C00F3EE006AC7EE267A9FED037A67EE877AD6
:100F1C00B0EE670A02B0704748E17A3F00B585B081
:100F2C0003468DF8073002AB19462020FFF7B4FFBB
:100F3C000390039B002B22D19DF8073003F00F0385
:100F4C00DAB29DF8083062F307138DF808309DF87B
:100F5C00083043F001038DF808309DF8083043F059
:100F6C0002038DF808309DF8083043F004038DF827
:100F7C00083002AB19462020FFF76EFF0390039B4D
:100F8C00184605B05DF804FB00B585B003468DF836
:100F9C00073002AB19462320FFF77EFF0390039B1B
:100FAC00002B10D19DF8073003F00103DAB29DF845
:100FBC00083062F3C7138DF8083002AB19462320B2
:100FCC00FFF74AFF0390039B184605B05DF804FB3E
:100FDC0000B585B003468DF8073002AB19462320C7
:100FEC00FFF75AFF0390039B002B10D19DF807309D
:100FFC0003F00303DAB29DF8083062F305138DF8A1
:10100C00083002AB19462320FFF726FF0390039B01
:10101C00184605B05DF804FB00B587B003468DF8A3
:10102C0007309DF80730002B06D100238DF81330C4
:10103C0001238DF8123010E09DF80730012B06D1FA
:10104C0000238DF8133000238DF8123005E00123B6
:10105C008DF8133000238DF8123004AB1946202084
:10106C00FFF71AFF05909DF8133003F00103DAB275
:10107C009DF8103062F3C3038DF81030059B002BE4
:10108C0005D104AB19462020FFF7E6FE0590059B21
:10109C00002B05D103AB19462320FFF7FDFE05906D
:1010AC00059B002B10D19DF8123003F00103DAB22E
:1010BC009DF80C3062F3C3038DF80C3003AB19466A
:1010CC002320FFF7C9FE0590059B184607B05DF875
:1010DC0004FB00B585B0019002AB19462720FFF741
:1010EC00DBFE03909DF80830C3F3C003DBB21A4655
:1010FC00019B1A70039B184605B05DF804FB00B504
:10110C0085B001900DF10B0319462820FFF7C4FEA2
:10111C009DF80B301AB2019B1A800DF10B03194686
:10112C002920FFF7B9FE019BB3F900209DF80B3085
:10113C001B021BB213431AB2019B1A800DF10B0355
:10114C0019462A20FFF7A8FE9DF80B20019B0233BD
:10115C0012B21A800DF10B0319462B20FFF79CFEDF
:10116C00019B0233B3F900109DF80B301B021AB22D
:10117C00019B02330A4312B21A800DF10B0319467C
:10118C002C20FFF789FE9DF80B20019B043312B233
:10119C001A800DF10B0319462D20FFF77DFE0390ED
:1011AC00019B0433B3F900109DF80B301B021AB2EB
:1011BC00019B04330A4312B21A80039B184605B0F4
:1011CC005DF804FB82B00190019B184602B0704799
:1011DC0000B585B0039002910192039B9B6B002B91
:1011EC0001D1FFF707FC039B9B6B1C2103989847CD
:1011FC000346184605B05DF804FB000010B5A0B01E
:10120C0003900291029B1B69002B01D1FFF7F2FBAB
:10121C00029B1B691F93344B1B681A460299039857
:10122C0026F0DCFF1E90314B1B681A46029903987E
:10123C0026F0E3FF1D901E9B1B7A012B02D0092B7D
:10124C0021D043E005AB1E99184627F015F81E98DF
:10125C0000F016F904460BAB1D99184627F00CF854
:10126C001D9800F01BF903460BAA05A8214600F0B7
:10127C0020FB0BAB1846FFF7A5FF05AB1846FFF795
:10128C00A1FF00232DE011AB1E99184626F0F4FFA8
:10129C0017AB1D99184626F0EFFF1E9800F00CF9BD
:1012AC0004461D9800F016F9034617AA11A90093DD
:1012BC0023461F9800F08AFA17AB1846FFF782FFF7
:1012CC0011AB1846FFF77EFF00230AE01E9B1B7A2A
:1012DC00184608F021FC03461946054851F07EF9E2
:1012EC000123184620B010BD34AF050038AF0500FF
:1012FC0008AF050000B585B0039002910192039BE5
:10130C009B6B002B01D1FFF775FB039B9B6B0221A1
:10131C00039898470346184605B05DF804FB000097
:10132C0070B5A0B003900291029B1B69002B01D1F8
:10133C00FFF760FB029B1B691F93384B1B681A4617
:10134C000299039826F04AFF1E90354B1B681A46EB
:10135C000299039826F051FF1D901E9B1B7A012BBE
:10136C0002D0092B21D04BE005AB1E99184626F074
:10137C0083FF1E9800F084F804460BAB1D991846A9
:10138C0026F07AFF1D9800F089F803460BAA05A8F1
:10139C00214600F0C3FA0BAB1846FFF713FF05AB61
:1013AC001846FFF70FFF002335E01F9B93F9014010
:1013BC001F9B93F9005011AB1E99184626F05CFF49
:1013CC001E9800F079F8064617AB1D99184626F0C2
:1013DC0053FF1D9800F07EF8034611AA019317AB3A
:1013EC00009333462946204600F0DCFA17AB18462A
:1013FC00FFF7E8FE11AB1846FFF7E4FE00230AE006
:10140C001E9B1B7A184608F087FB034619460548B5
:10141C0051F0E4F80123184620B070BD34AF05003C
:10142C0038AF050008AF050000B585B003900398F0
:10143C0000230093044B054A054926F07CFE00BFAF
:10144C00039805B05DF804FB09120000391A00007E
:10145C00DD11000000B585B00390039800230093C4
:10146C00044B054A054926F066FE00BF039805B0FB
:10147C005DF804FB2D130000FD1A000001130000A1
:10148C0000B583B00190019B002B01D1FFF7B2FA9C
:10149C00019B1B68184603B05DF804FB00B583B0D4
:1014AC000190019B002B01D1FFF7A4FA019B1B6853
:1014BC00184603B05DF804FB00B583B00190019BA6
:1014CC00002B01D1FFF796FA019B1B68184603B05D
:1014DC005DF804FB00B583B00190019B002B01D19A
:1014EC00FFF788FA019B1B68184603B05DF804FBF4
:1014FC002DE9F00F8EB00390029103980299884267
:10150C0007D14FF0004000BF0399814201D1012166
:10151C0000E000218DF837100399C8170E460746D6
:10152C0030463946CDE90A010299C8178A468346E6
:10153C00CDE908AB0B99089801FB00F009990A9EBC
:10154C0006FB01F101440A9806460898A6FB002305
:10155C0019440B46CDE90623CDE90623DDE9062324
:10156C00002B02DB4FF0804300E0194B0593059BE9
:10157C00DA171C461546DDE9062314EB020845EB89
:10158C00030942464B46002B08DA6FF00041511814
:10159C00009143F100030193DDE900234FF00000BB
:1015AC004FF00001D00F40EA4300D91702460B461A
:1015BC00134604939DF83730002B03D06FF0004393
:1015CC0000BF00E0049B18460EB0BDE8F00F70475A
:1015DC00010000C082B00190019B00221A60019BA7
:1015EC00184602B0704700B585B003900291019285
:1015FC00039B029A1A60019A0299039800F033F83F
:10160C00039B184605B05DF804FB82B00190019B6A
:10161C001B68184602B0704700B583B0019000916A
:10162C00009B002B01DAFFF7E5F9019B1B68009A80
:10163C009A4201DBFFF7DEF9019A009B9B001344F1
:10164C005B68184603B05DF804FB82B00190019B07
:10165C000433184602B0704782B00190019B0433EA
:10166C00184602B0704700B587B003900291019202
:10167C00039B029A1A600398FFF7E7FF0590029B01
:10168C009B001A460199059859F082F900BF07B0E2
:10169C005DF804FB00B587B0019001230593019818
:1016AC00FFF7DAFF0390002304930BE0049B9B00ED
:1016BC00039A13441A68059B02FB03F30593049BDE
:1016CC0001330493019B1B68049A9A42EEDB059B41
:1016DC00184607B05DF804FB10B584B0019000917A
:1016EC000198FFF792FF04460098FFF78EFF034620
:1016FC009C4201D0FFF77EF90198FFF786FF02901C
:10170C000023039310E003990198FFF785FF04462B
:10171C0003990098FFF780FF03469C4201D0FFF726
:10172C0069F9039B01330393039A029B9A42EADB08
:10173C000198FFF7AFFF0346184604B010BD00B583
:10174C0087B0039002910192019B23EAE373059306
:10175C00019B002B02DC019B5B4200E00023049305
:10176C00039A059B02FA03F302991846FFF7C0FE91
:10177C0003460499184600F00DFA0346184607B0C4
:10178C005DF804FB00B587B001900091009B002B25
:10179C0003D10198FFF71EFF0DE0009B9B6805939A
:1017AC00059B1B680493059B04330393039A0499CC
:1017BC000198FFF718FF019807B05DF804FB82B0A1
:1017CC000190019BDB68184602B0704770B594B06D
:1017DC00039002910192009301990298FFF77CFF0C
:1017EC001290002313935CE0139B009A134493F91B
:1017FC0000301193039B1C69039BDB68119AD01A70
:10180C00039B5969039B9B691A46FFF798FF034694
:10181C0023440693039B04330B930B9B0A9306AB55
:10182C0009938DF814500A9B0893099B0793089B06
:10183C001A68079B1B689A42B4BF01230023DBB2D2
:10184C00002B01D0099B01E00A9B00BF00BF1B6865
:10185C000693039B08331093109B0F9306AB0E93C8
:10186C008DF810600E9B0D930F9B0C930D9B1A68BB
:10187C000C9B1B689A42B4BF01230023DBB2002BE4
:10188C0001D00E9B01E00F9B00BF00BF1B680693AD
:10189C000699139B189A13444AB21A70139B01337E
:1018AC001393139A129B9A429EDB00BF00BF14B095
:1018BC0070BD00B58BB00390029101920093019919
:1018CC000398FFF709FF0890002309931CE0099B7C
:1018DC009B00029A13441B6807934FF00003069376
:1018EC00DDED077AF5EEC07AF1EE10FA01D5069B24
:1018FC0000E0079B0593099B9B00009A1344059AF3
:10190C001A60099B01330993099A089B9A42DEDB02
:10191C0000BF00BF0BB05DF804FB000000B58BB03E
:10192C00039002910192009301990398FFF7D4FE62
:10193C0008900023099329E0099B9B00029A134409
:10194C001B680793164B06934FF000030593DDEDD0
:10195C00077AB1EE087AF4EEC77AF1EE10FA01DDEF
:10196C00069B09E0DDED077AF5EEC07AF1EE10FA90
:10197C0001D5059B00E0079B0493099B9B00009AF3
:10198C001344049A1A60099B01330993099A089B22
:10199C009A42D1DB00BF00BF0BB05DF804FB00BF67
:1019AC000000C04000B589B00292019303468DF847
:1019BC000F300B468DF80E300A990298FFF78CFE0B
:1019CC0006900023079328E0079B019A13441B7889
:1019DC008DF817309DF90E309DF917209A4204DDD1
:1019EC000DF10E0393F900300CE09DF90F309DF9C9
:1019FC0017209A4204DA0DF10F0393F9003001E03D
:101A0C009DF917308DF81630079B0B9A13449DF8EF
:101A1C0016201A70079B01330793079A069B9A426C
:101A2C00D2DB00BF00BF09B05DF804FB10B588B075
:101A3C0003900291029B1B69002B01D1FEF7DAFF88
:101A4C00029B1B6907930398FFF7B9FE0690069B50
:101A5C001B6818331B68002202990698984705905A
:101A6C00059B002B0AD1039B5C691D4B00937B23C8
:101A7C001C4A1D490398A04701232EE0069B1B68B6
:101A8C001C331B6800220299069898470490049B0B
:101A9C00002B0AD1039B5C69144B00937E23114AE3
:101AAC0011490398A047012317E0059B1B78092BCC
:101ABC0004D1079A0499059800F0DAF8069B1B6884
:101ACC0024331B68059906989847069B1B6824339A
:101ADC001B680499069898470023184608B010BD57
:101AEC00A4AF05003CAF05008CAF0500B8AF0500F6
:101AFC0010B588B003900291029B1B69002B01D199
:101B0C00FEF778FF029B1B6907930398FFF757FEBC
:101B1C000690069B1B6818331B68002202990698D6
:101B2C0098470590059B002B0AD1039B5C69164BCB
:101B3C0000939123154A16490398A047012320E0EE
:101B4C00059B1B78092B14D1059BD3ED037A059BC0
:101B5C001B691846F0EE670AB1EE080A00F044F96A
:101B6C0003461A46079B1A70059B1B695AB2079BC2
:101B7C005A70069B1B6824331B6805990698984776
:101B8C000023184608B010BDA4AF05003CAF0500FB
:101B9C008CAF050070B588B001900091009B002BB4
:101BAC0005DA4FF4B3722F492F48FEF724FF009B40
:101BBC001F2B05DD40F267122A492C48FEF71BFF4C
:101BCC004FF001024FF000030099A1F12006C1F182
:101BDC00200003FA01F502FA06F6354322FA00F06A
:101BEC00054302FA01F42346013B184600F062F962
:101BFC000790002000F05EF90690012000F05AF9E1
:101C0C0005900799019800F05BF904900121079861
:101C1C0000F05FF904460699019800F064F9034658
:101C2C000599184600F04CF903461946204600F079
:101C3C006DF903900099019800F04BF90446039953
:101C4C00049800F06CF903460599184600F038F931
:101C5C0003461946204600F059F90346184608B0C9
:101C6C0070BD00BFCCAF050034B0050044B005001A
:101C7C0070B5A2B00390029101924FF00003219332
:101C8C004FF0FF432093039B93ED037A029BD3ED1C
:101C9C00037AC7EE276A16EE900A57F099FF0246B0
:101CAC000B46CDE91E230CAB03991846FFF76AFDD2
:101CBC0006AB02991846FFF765FD019B03F1140270
:101CCC00019B1833194610469DED1E0B37F0CAF9CF
:101CDC006FF07F0300BF1293029B1C69029BD3ED34
:101CEC00037A9DED217AC7EE276AB0EE660A58F0AA
:101CFC00B9F9F0EE407AFDEEE77A17EE903A23440C
:101D0C00139312AB1D9313AB1C938DF810601D9B9A
:101D1C001B931C9B1A931B9B1A681A9B1B689A4259
:101D2C00B4BF01230023DBB2002B01D01C9B01E0CC
:101D3C001D9B00BF00BF1A68019B5A609FED297A5A
:101D4C0000BFDDED207AF4EE477AF1EE10FA02D105
:101D5C007F2300BF32E07F2300BF1493029B1C69DA
:101D6C00029BD3ED037A9DED207AC7EE276AB0EE85
:101D7C00660A58F077F9F0EE407AFDEEE77A17EE46
:101D8C00903A2344159314AB199315AB18938DF813
:101D9C001450189B1793199B1693179B1A68169B34
:101DAC001B689A42B4BF01230023DBB2002B01D085
:101DBC00189B01E0199B00BF00BF1B68019A936040
:101DCC00039B1A69019BDA60029B1A69019B1A61D9
:101DDC0006AB1846FFF7F6F90CAB1846FFF7F2F90D
:101DEC0022B070BD0000807F30B593B08DED030A3A
:101DFC00CDED020A0190DDED036A9DED027AC6EE8F
:101E0C00877ACDED097A9DED090A58F02BF9B0EEE1
:101E1C00407A00BF019B07EE903AF8EEE77A77EE36
:101E2C00277AFDEEE77A17EE903A06936FF07F0370
:101E3C0000BF079307AB0D9306AB0C938DF81450B2
:101E4C000D9B0B930C9B0A930B9B1A680A9B1B68AC
:101E5C009A42B4BF01230023DBB2002B01D00C9BB0
:101E6C0001E00D9B00BF00BF1B6806937F2300BFE2
:101E7C00089308AB119306AB10938DF81040109B90
:101E8C000F93119B0E930F9B1A680E9B1B689A4223
:101E9C00B4BF01230023DBB2002B01D0109B01E067
:101EAC00119B00BF00BF1B680693069B5BB21846D4
:101EBC0013B030BD82B00190019B184602B0704740
:101ECC0082B001900091019A009B1340184602B019
:101EDC00704782B001900091019A009B42FA03F383
:101EEC00184602B0704700B583B001900091019A7A
:101EFC00009B9A42B4BF01230023DBB2184600F0CA
:101F0C0021F80346184603B05DF804FB82B001903B
:101F1C000091019A009B1344184602B0704700B51B
:101F2C0083B001900091019A009B9A42CCBF01238F
:101F3C000023DBB2184600F005F80346184603B040
:101F4C005DF804FB00B583B00190019B002B04D01D
:101F5C00002000F007F8034600E00023184603B009
:101F6C005DF804FB82B00190019BDB43184602B084
:101F7C007047000030B492B003460A46ADF8063004
:101F8C001346ADF80430BDF906301193BDF9043099
:101F9C001093119A109B1344049347F6FF73059307
:101FAC001E4B069306AB0A9304AB09938DF80C50A9
:101FBC000A9B0893099B0793089B1A68079B1B684D
:101FCC009A42B4BF01230023DBB2002B01D0099B42
:101FDC0001E00A9B00BF00BF0F9305AB0E930F9B54
:101FEC000D938DF808400D9B0C930E9B0B930C9B43
:101FFC001A680B9B1B689A42B4BF01230023DBB207
:10200C00002B01D00D9B01E00E9B00BF00BF1B6895
:10201C001BB2184612B030BC704700BF0080FFFFE7
:10202C0000B587B0039002910192039B029A1A604B
:10203C000023059307E0019A0599039800F02EF808
:10204C00059B01330593059A029B9A42F3DB039B94
:10205C00184607B05DF804FB10B582B001900091F2
:10206C00019B1A68009B1B689A4213D10198FFF7D9
:10207C00F3FA04460098FFF7EFFA0146019B1B6840
:10208C009B001A46204658F018FD0346002B01D140
:10209C00012300E00023184602B010BD00B585B046
:1020AC00039002910192029B002B01DAFEF7A2FC35
:1020BC00039B1B68029A9A4201DBFEF79BFC039A76
:1020CC00029B9B001344019A5A6000BF05B05DF857
:1020DC0004FB00B585B00390029101920123019A93
:1020EC000299039800F004F8039805B05DF804FB1E
:1020FC0030B587B00390029101920093039B029A32
:10210C001A600198FFF781FA0246029B934201DAAA
:10211C00FEF770FC0198FFF778FA0246029B9B1AB7
:10212C0004930023059307E0009A05990398FFF7A1
:10213C00B5FF059B01330593059A049B9A42F3DB8B
:10214C000398FFF782FA0246049B9B00D41801986F
:10215C00FFF782FA05460198FFF757FA03469B00F2
:10216C001A462946204658F013FC039B184607B024
:10217C0030BD00B587B00390029101920093039893
:10218C00FFF743FA0346042B01D0FEF733FC039808
:10219C00FFF762FA0590059B1B68002B02D1029B8E
:1021AC00002B09D0029B002B04DB059B1B68029AB9
:1021BC009A4201DBFEF71EFC059B04331B68002BC7
:1021CC0002D1019B002B0AD0019B002B05DB059B48
:1021DC0004331B68019A9A4201DBFEF70BFC059B4A
:1021EC0008331B68002B02D1009B002B0AD0009BEC
:1021FC00002B05DB059B08331B68009A9A4201DB18
:10220C00FEF7F8FB059B0C331B68002B02D1089BD7
:10221C00002B0AD0089B002B05DB059B0C331B689D
:10222C00089A9A4201DBFEF7E5FB059B04331B6819
:10223C00029A03FB02F2019B1344059A08321268BE
:10224C0003FB02F2009B1344059A0C32126803FB49
:10225C0002F2089B1344184607B05DF804FB00B566
:10226C0089B00390029101920398FFF713FA07903B
:10227C000298FFF70FFA06900198FFF70BFA0590FA
:10228C00079A069B9A4201D0FEF7B4FB069A059B6F
:10229C009A4201D0FEF7AEFB079B184609B05DF8D9
:1022AC0004FB00B585B0039002910192029903984A
:1022BC00FFF71EF90246019B5B4219461046FFF7D9
:1022CC0069FC0346184605B05DF804FB00B585B003
:1022DC000390029101920093029B002B04DB039B61
:1022EC001B68029A9A4201DBFEF784FB019B002BD0
:1022FC0004DB039B5B68019A9A4201DBFEF77AFBD5
:10230C00009B002B04DB039B9B68009A9A4201DB29
:10231C00FEF770FB069B002B04DB039BDB68069A25
:10232C009A4201DBFEF766FB039B1B69029A03FBD7
:10233C0002F2039B5B69019901FB03F31A44039BB3
:10234C009B69009901FB03F31A44039BDB69069913
:10235C0001FB03F31344184605B05DF804FB00B50C
:10236C0089B00590049103920293059BDA6A059B50
:10237C001B6B9A4201DDFEF73DFB0B9A0299049808
:10238C00FFF76DFF079047F6FF730693059B5A689E
:10239C00069B5B429A4201DCFEF72CFB059B9A687C
:1023AC00069B5B429A4201DCFEF724FB059B5B68B3
:1023BC00069A9A4201DCFEF71DFB059B9B68069A68
:1023CC009A4201DCFEF716FB0C9B00930A9B039AC6
:1023DC000599079800F047FF00BF09B05DF804FBB2
:1023EC0030B59FB007900691059204939DF89430F8
:1023FC0083F00103DBB2002B0CD0249B0293239BB4
:10240C000193229B0093049B059A06990798FFF76A
:10241C00A6FFC4E0079BDA6A079B1B6B9A4201DD9F
:10242C00FEF7E8FA079B1B6A1C93239A04990698FB
:10243C00FFF715FF1B90079BDB6A1BB2ADF836301C
:10244C00079B1B6B1BB2ADF834301C9B002B05D0CB
:10245C00079B9B6A002B01D0FEF7CCFA1C9B002B30
:10246C0001DDFEF7C7FA079B9B6A002B01DDFEF727
:10247C00C1FA1C9B002B01D1059B00E0229B1A93F7
:10248C001C9B002B01D1229B00E0059B19931C9BEC
:10249C00002B03D1079B9B6A5B4201E01C9B5B42B8
:1024AC00189300231D9376E01D9B5B001A9A13442E
:1024BC00B3F90030184600F099FF0346ADF8303000
:1024CC001D9B5B00199A1344B3F9003018991846F8
:1024DC0000F0A0FF0346184600F088FF0346ADF855
:1024EC002C30BDF83010BDF82C0001F027F8034655
:1024FC00ADF828300AAB184601F040F80346B3F9A2
:10250C000030ADF826300DF1360311930DF1260392
:10251C0010938DF82440119B0F93109B0E930F9BDF
:10252C00B3F900200E9BB3F900309A42B4BF0123DB
:10253C000023DBB2002B01D0109B01E0119B00BFEC
:10254C0000BF16930DAB1593169B14938DF820506A
:10255C00149B1393159B1293139BB3F90020129B9E
:10256C00B3F900309A42B4BF01230023DBB2002B35
:10257C0001D0149B01E0159B00BF00BF1B88ADF878
:10258C005E301D9B5B00249A1344BDF85E201A80BC
:10259C001D9B01331D931D9A1B9B9A4284DB1FB01C
:1025AC0030BD00B583B00190019BDA6A019B1B6BB7
:1025BC009A4201DDFEF71EFA019B5B685B426FF0ED
:1025CC007F0200BF934201DAFEF714FA019B9B686D
:1025DC005B426FF07F0200BF934201DAFEF70AFA0A
:1025EC00019B5B685B427F2200BF934201DDFEF7DB
:1025FC0001FA019B9B685B427F2200BF934201DD85
:10260C00FEF7F8F900BF03B05DF804FB10B586B017
:10261C0003900291019200930298FFF7C2FF0023EE
:10262C00059314E0059B019A134493F90000059B54
:10263C00009A134493F90010059B089AD4180A9B2E
:10264C00029A984703462370059B01330593059A1C
:10265C00039B9A42E6DB00BF00BF06B010BD70B50D
:10266C00A0B005900491039202930CAB14AA0299AA
:10267C00049800F089FF06AB259A04211846FFF751
:10268C0028FD00231F936DE000231E9359E00023C7
:10269C001D9345E000231C9331E014A81C9B009370
:1026AC001D9B1E9A1F99FFF711FE03461A46039BAA
:1026BC00134493F900500CA81C9B00931D9B1E9A6D
:1026CC001F99FFF703FE03461A46249B134493F904
:1026DC00006006A81C9B00931D9B1E9A1F99FFF778
:1026EC0048FD03461A46269B9C18289B059A3146A2
:1026FC0028469847034623701C9B01331C9306AB5A
:10270C0003211846FEF788FF02461C9B9342B4BF78
:10271C0001230023DBB2002BBFD11D9B01331D9382
:10272C0006AB02211846FEF777FF02461D9B93422B
:10273C00B4BF01230023DBB2002BABD11E9B0133B2
:10274C001E9306AB01211846FEF766FF02461E9B40
:10275C009342B4BF01230023DBB2002B97D11F9B04
:10276C0001331F9306AB00211846FEF755FF0246B6
:10277C001F9B9342B4BF01230023DBB2002B83D1F8
:10278C0006AB1846FEF71EFD20B070BD30B599B0F3
:10279C00034600928DF807300B468DF80630009BEF
:1027AC005A689DF9073013441793009B9A689DF95A
:1027BC00063013441693009B9B69179A02FA03F395
:1027CC001593009B9B69169A02FA03F31493009BD2
:1027DC00D969009B1B6A1A461598FFF762FD139086
:1027EC00009B596A009B9B6A1A461498FFF759FD87
:1027FC001290139A129B13441193009B1969009B1E
:10280C005B691A461198FFF74CFD0246009BDB688A
:10281C0013440493009B03F13002009B2C33099367
:10282C00099B089304AB07938DF80C50089B0693F7
:10283C00079B0593069B1968059B1B689942B4BFBF
:10284C0001230023DBB2002B01D0079B01E0089B86
:10285C0000BF00BF0F920E930F9B0D930E9B0C931A
:10286C008DF808400C9B0B930D9B0A930B9B1A68DD
:10287C000A9B1B689A42B4BF01230023DBB2002BD6
:10288C0001D00C9B01E00D9B00BF00BF1B68109397
:10289C00109B5BB2184619B030BD000000B589B072
:1028AC000790069105920493074B0293074B0193F3
:1028BC000A9B0093049B059A06990798FFF7A6FEBE
:1028CC0000BF09B05DF804FB99270000AF2500009C
:1028DC0000B589B005900491039202930598FFF717
:1028EC0060FE0B9A02990498FFF7B9FC07900C9BB9
:1028FC0000930A9B039A05990798FFF7CFFF00BF37
:10290C0009B05DF804FB000000B58BB0099008918C
:10291C0007920693094B0493094B03930E9B029366
:10292C000D9B01930C9B0093069B079A08990998A1
:10293C00FFF795FE00BF0BB05DF804FB9927000074
:10294C00AF25000010B5A4B003900291019203983A
:10295C00FEF75BFE034618930298FEF756FE0346FD
:10296C00199318AB1D9319AB1C938DF814401D9B38
:10297C001B931C9B1A931B9B1A681A9B1B689A42ED
:10298C00B4BF01230023DBB2002B01D01C9B01E060
:10299C001D9B00BF00BF1B682193019B04221A7072
:1029AC0012AB012221991846FFF73AFB0CAB039AA4
:1029BC0021991846FFF78DFB06AB029A2199184610
:1029CC00FFF787FB06AA0CAB11461846FFF744FB32
:1029DC000346002B04D0019B01221A70002424E131
:1029EC00219B013B23933DE00CAB23991846FEF74A
:1029FC0013FE044606AB23991846FEF70DFE03465C
:102A0C009C420CBF01230023DBB2002B26D10CAB64
:102A1C0023991846FEF700FE0346012B0CBF012339
:102A2C000023DBB2002B03D0019B02221A701CE0A6
:102A3C0006AB23991846FEF7EFFD0346012B0CBF9E
:102A4C0001230023DBB2002B03D0019B03221A705D
:102A5C000BE0019B04221A700124E6E000BF239BCB
:102A6C00013B2393239B002BBEDA019B1B78022B8B
:102A7C0005D0019B1B78032B01D0FDF7BBFF019BFD
:102A8C001B78032B0CBF012300238DF883309DF89A
:102A9C008330002B01D006AB00E00CAB1F939DF8EC
:102AAC008330002B01D00CAB00E006AB1E93219BB6
:102ABC00013B2293019B01221A65019B01225A655D
:102ACC00019B01229A65019B0122DA65019B01227F
:102ADC001A660DE022991E98FEF79EFD0246019B98
:102AEC001B6E03FB02F2019B1A66229B013B229395
:102AFC00229B002B0DDB22991F98FEF78DFD0446BF
:102B0C0022991E98FEF788FD03469C4201D10123B1
:102B1C0000E00023002BDDD10DE022991E98FEF77A
:102B2C007BFD0246019BDB6D03FB02F2019BDA6528
:102B3C00229B013B2293229B002B08DB22991F989E
:102B4C00FEF76AFD0346012B01D1012300E00023AF
:102B5C00002BE2D10DE022991F98FEF75DFD024695
:102B6C00019B9B6D03FB02F2019B9A65229B013B2F
:102B7C002293229B002B0DDB22991F98FEF74CFD14
:102B8C00044622991E98FEF747FD03469C4201D14C
:102B9C00012300E00023002BDDD10DE022991F98CA
:102BAC00FEF73AFD0246019B5B6D03FB02F2019BB3
:102BBC005A65229B013B2293229B002B08DB229916
:102BCC001E98FEF729FD0346012B01D1012300E0DD
:102BDC000023002BE2D10DE022991E98FEF71CFD7C
:102BEC000246019B1B6D03FB02F2019B1A65229BA3
:102BFC00013B2293229B002B0DDB22991F98FEF7A1
:102C0C000BFD044622991E98FEF706FD03469C42D6
:102C1C0001D1012300E00023002BDDD1229B002BEE
:102C2C0002DB019B04221A70012406AB1846FEF746
:102C3C00C9FA0CAB1846FEF7C5FA12AB1846FEF7EC
:102C4C00C1FA2346184624B010BD30B5C7B0079062
:102C5C0046A8A0F58070016046A9A1F582710A60B2
:102C6C0046AAA2F58472136046ABA3F584731B6865
:102C7C00D3ED0D7A46ABA3F584731B6893ED0E7AF6
:102C8C0008AB1846F0EE470AB0EE670A00F0E5FC18
:102C9C0046ABA3F584731B681B78002B32D022AB98
:102CAC004A99184625F0E8FA4A98FEF7E9FB0546DA
:102CBC0028AB4B99184625F0DFFA4B98FEF7E0FB52
:102CCC0004462EAB4C99184625F0D6FA4C98FEF7D4
:102CDC00E5FB034628AA22A908A802932EAB019370
:102CEC00009413462A4600F0C7FC2EAB1846FEF79C
:102CFC0069FA28AB1846FEF765FA22AB1846FEF7C0
:102D0C0061FA31E034AB4A99184625F0B5FA4A9885
:102D1C00FEF7B6FB05463AAB4B99184625F0ACFAD4
:102D2C004B98FEF7ADFB044640AB4C99184625F08A
:102D3C00A3FA4C98FEF7B2FB03463AAA34A908A8AA
:102D4C00029340AB0193009413462A4600F041FDD8
:102D5C0040AB1846FEF736FA3AAB1846FEF732FA95
:102D6C0034AB1846FEF72EFA00BF47B030BD00005A
:102D7C0070B5F8B078ACA4F5E274206078A8A0F532
:102D8C00E470016078A9A1F5E6710A6078AAA2F551
:102D9C00E872136078ABA3F5E8731B685A6A78ABDA
:102DAC00A3F5E0739A6178ABA3F5E8731B689A6A94
:102DBC0078ABA3F5E0735A6078ABA3F5E8731B68A6
:102DCC005A6978ABA3F5E073DA6178ABA3F5E873D5
:102DDC001B685A6878ABA3F5E0731A6278ABA3F55D
:102DEC00E8731B68DA6A78ABA3F5E0739A6078AB8A
:102DFC00A3F5E8731B689A6978ABA3F5E0735A6284
:102E0C0078ABA3F5E8731B689A6878ABA3F5E0730D
:102E1C009A6278ABA3F5E8731B681A6B78ABA3F5D1
:102E2C00E073DA6078ABA3F5E8731B68DA6978AB0A
:102E3C00A3F5E0731A6178ABA3F5E8731B681A6A03
:102E4C0078ABA3F5E0735A6178ABA3F5E8731B6814
:102E5C00D86878ABA3F5E8731B681B6908AA1946F8
:102E6C0000F0F9FC78ABA3F5AA737C99184625F011
:102E7C0003FA78ABA3F59E737D99184625F0FCF9FF
:102E8C0008AA29A923AB1846FFF75CFD03468DF869
:102E9C00DF3129AB1846FEF795F923AB1846FEF740
:102EAC0091F97E9B1B7A072B70D0092B40F0DA80AE
:102EBC009DF8DF31002B36D078ABA3F592737C995B
:102ECC00184625F0D9F97C98FEF7F6FA054678AB4A
:102EDC00A3F586737D99184625F0CEF97D98FEF7FB
:102EEC00EBFA04463BAB7E99184625F0C5F97E9863
:102EFC00FEF7F0FA034635AA2FA908A802933BABBC
:102F0C000193009413462A46FFF7FEFC3BAB184690
:102F1C00FEF758F935AB1846FEF754F92FAB1846A7
:102F2C00FEF750F9ACE041AB7C99184625F0A4F9BA
:102F3C007C98FEF7C1FA054647AB7D99184625F0FB
:102F4C009BF97D98FEF7B8FA04464DAB7E9918466E
:102F5C0025F092F97E98FEF7BDFA034647AA41A9DF
:102F6C0008A802934DAB0193009413462A46FFF731
:102F7C00AFFC4DAB1846FEF725F947AB1846FEF7EC
:102F8C0021F941AB1846FEF71DF979E09DF8DF31C8
:102F9C00002B32D053AB7C99184625F06DF97C98F8
:102FAC0000F066FC054659AB7D99184625F064F98E
:102FBC007D9800F05DFC04465FAB7E99184625F0C9
:102FCC005BF97E9800F062FC034659AA53A908A845
:102FDC0002935FAB0193009413462A4600F064FC05
:102FEC005FAB1846FEF7EEF859AB1846FEF7EAF859
:102FFC0053AB1846FEF7E6F842E065AB7C991846F1
:10300C0025F03AF97C9800F033FC05466BAB7D99C2
:10301C00184625F031F97D9800F02AFC044671AB76
:10302C007E99184625F028F97E9800F02FFC03466F
:10303C006BAA65A908A800260396029371AB0193AD
:10304C00009413462A46FFF7CBF971AB1846FEF7EE
:10305C00B9F86BAB1846FEF7B5F865AB1846FEF73A
:10306C00B1F80DE07E9B1B7A184606F055FD014623
:10307C007E9B1B7A1A4604484FF0B0FA012300E0FD
:10308C000023184678B070BD54B0050000B585B06B
:10309C00039002910192039B9B6B002B01D1FDF7D6
:1030AC00A9FC039B9B6B3C2103989847034618464D
:1030BC0005B05DF804FB000000B58DB005900491DF
:1030CC00049B5B690B93049B1B69002B01D1FDF7DF
:1030DC0091FC049B1B690A932D4B1B681A4604999F
:1030EC00059825F07BF809902A4B1B681A46049921
:1030FC00059825F073F80890274B1B681A4604991D
:10310C00059825F07AF80790079B1B7A012B0CD1B8
:10311C00079B0293089B0193099B00930A9B0B9AB4
:10312C0004990598FFF791FD2CE0079B1B7A092B5E
:10313C0003D0079B1B7A072B15D1079B0293089B87
:10314C000193099B00930A9B0B9A04990598FFF72E
:10315C000FFE03468DF81B309DF81B30002B10D052
:10316C009DF81B300FE0079B1B7A184606F0D4FC29
:10317C000146079B1B7A1A4608484FF02FFA012389
:10318C0001E000BF002318460DB05DF804FB00BF42
:10319C00F8B00500FCB0050000B1050054B0050006
:1031AC0000B585B00390039800230093044B054AA7
:1031BC00054924F0C0FF00BF039805B05DF804FB7F
:1031CC00C53000002D3E00009930000090B08DED10
:1031DC00030ACDED020A8DED011A03AB0A9302AB83
:1031EC0009938DF818100A9B0893099B0793089B69
:1031FC0093ED007A079BD3ED007AB4EEE77AF1EE0B
:10320C0010FA4CBF01230023DBB2002B01D0099B29
:10321C0001E00A9B00BF00BF0F930F9B0E9301AB05
:10322C000D938DF814200D9B0C930E9B0B930C9B04
:10323C0093ED007A0B9BD3ED007AB4EEE77AF1EEC6
:10324C0010FA4CBF01230023DBB2002B01D00D9BE5
:10325C0001E00E9B00BF00BF1B6807EE903AB0EE7A
:10326C00670A10B0704730B59DB00390029101927F
:10327C000093029B5A6847F6FF7300BF5B429A4269
:10328C0001DCFDF7B7FB029B9A6847F6FF7300BFA2
:10329C005B429A4201DCFDF7ADFB029B5B6847F693
:1032AC00FF7200BF934201DBFDF7A4FB029B9B68FE
:1032BC0047F6FF7200BF934201DBFDF79BFB002337
:1032CC001B938AE0029B5B681B9A520001990A448B
:1032DC00B2F9002013441A93029B9B681B9A52006C
:1032EC0000990A44B2F9002013441993029B9B697C
:1032FC001A9A02FA03F31893029B9B69199A02FA21
:10330C0003F31793029BD969029B1B6A1A46189800
:10331C00FEF7C7FF1690029B596A029B9B6A1A46DE
:10332C001798FEF7BEFF1590169A159B134414932D
:10333C00029B1969029B5B691A461498FEF7B1FF50
:10334C000246029BDB6813440793029B03F1300295
:10335C00029B2C330C930C9B0B9307AB0A938DF8AD
:10336C0018400B9B09930A9B0893099B1968089BAF
:10337C001B689942B4BF01230023DBB2002B01D0A0
:10338C000A9B01E00B9B00BF00BF12921193129B92
:10339C001093119B0F938DF814500F9B0E93109B51
:1033AC000D930E9B1A680D9B1B689A42B4BF0123A8
:1033BC000023DBB2002B01D00F9B01E0109B00BF60
:1033CC0000BF1B6813931B9B5B00209A1344139A3A
:1033DC0012B21A801B9B01331B931B9A039B9A42BC
:1033EC00FFF670AF00BF00BF1DB030BD00B585B09B
:1033FC000346ADF8063003AB184600F0BFF80246A2
:10340C00BDF806301380BDF80C30184605B05DF8D9
:10341C0004FB000070B586B003460091ADF8063091
:10342C00009B002B05DA4FF4B37241494148FDF77C
:10343C00E2FA009B1F2B05DD40F267123C493E4827
:10344C00FDF7D9FA4FF001024FF000030099A1F1FA
:10345C002006C1F1200003FA01F502FA06F6354305
:10346C0022FA00F0054302FA01F4A3B2013B9BB22D
:10347C001BB2184600F024FB0346ADF816300020B2
:10348C0000F01EFB0346ADF81430012000F018FBD1
:10349C000346ADF81230BDF91620BDF906301146C1
:1034AC00184600F016FB0346ADF81030BDF9163087
:1034BC000121184600F01EFB03461C46BDF91420E2
:1034CC00BDF906301146184600F022FB03461A4699
:1034DC00BDF912301946104600F0FBFA03461946A6
:1034EC00204600F030FB0346ADF80E30BDF9063037
:1034FC000099184600F0FEFA03461C46BDF90E2052
:10350C00BDF910301146184600F02FFB03461A4641
:10351C00BDF912301946104600F0DBFA0346194685
:10352C00204600F010FB0346184606B070BD00BFE5
:10353C0070B00500D8B00500E8B0050010B582B039
:10354C00ADF80400ADF8001001AB184600F016F809
:10355C000346B3F900406B46184600F00FF80346DB
:10356C00B3F9003019462046FEF704FD0346184611
:10357C00FFF73CFF0346184602B010BD82B0019025
:10358C00019B184602B0704700B595B003900291AC
:10359C0001920093019B002B01D1FDF72BFA009BAC
:1035AC00002B01D1FDF726FA0BAB039A0421184628
:1035BC00FEF78FFD05AB029A04211846FEF789FD34
:1035CC000BAB0199184600F0EBFA05AB00991846C5
:1035DC0000F0E6FA0023139331E00BAB1399184675
:1035EC00FEF71AF8129005AB13991846FEF714F86B
:1035FC001190129A119B9A421ED0129B012B0BD147
:10360C00019B139A0432002143F82210019B139A58
:10361C00119943F822100FE0119B012B01D0FDF7FB
:10362C00E9F9009B139A0432002143F82210009B05
:10363C00139A129943F82210139B01331393139B83
:10364C00032BCADD05AB1846FDF7BCFD0BAB1846CA
:10365C00FDF7B8FD15B05DF804FB84B08DED030AE1
:10366C00CDED020A0190019B039A5A63019B029AC9
:10367C009A6300BF04B0704710B52DED048BA2B057
:10368C0005900491039202930EAB16AA029904982A
:10369C00FFF77AFF08AB299A04211846FEF719FDAB
:1036AC0006AA07AB1946059800F0A6FA0023219349
:1036BC0078E00023209364E000231F9350E0002364
:1036CC001E933CE016A81E9B00931F9B209A2199E9
:1036DC00FEF7FCFD03469B00039A134493ED008A0E
:1036EC000EA81E9B00931F9B209A2199FEF7EEFDBE
:1036FC0003469B00289A1344D3ED007A38EE278AB0
:10370C00DDED078A9DED069A08A81E9B00931F9B72
:10371C00209A2199FEF72DFD03469B002A9AD41876
:10372C00B0EE491AF0EE680AB0EE480AFFF74EFD0B
:10373C00F0EE407AC4ED007A1E9B01331E9308AB69
:10374C0003211846FDF768FF02461E9B9342B4BF47
:10375C0001230023DBB2002BB4D11F9B01331F9339
:10376C0008AB02211846FDF757FF02461F9B9342F8
:10377C00B4BF01230023DBB2002BA0D1209B01336B
:10378C00209308AB01211846FDF746FF0246209B0B
:10379C009342B4BF01230023DBB2002B8CD1219BBD
:1037AC000133219308AB00211846FDF735FF024683
:1037BC00219B9342B4BF01230023DBB2002B7FF487
:1037CC0078AF08AB1846FDF7FDFC22B0BDEC048BBE
:1037DC0010BD10B588B0039002910192009304AA19
:1037EC0005AB1946039800F007FA0B9A009902985A
:1037FC00FEF735FD06900023079324E0079B9B0002
:10380C00019A134493ED007A079B9B000A9A134488
:10381C00D3ED007A77EE277A9DED057ADDED046A1B
:10382C00079B9B000C9AD418B0EE661AF0EE470A70
:10383C00B0EE670AFFF7CAFCF0EE407AC4ED007AEE
:10384C00079B01330793079A069B9A42D6DB00BF6E
:10385C0000BF08B010BD84B0039002910192019B8F
:10386C00039ADA62019B029A1A6300BF04B0704794
:10387C0000B583B00190019B002B01D1FDF7BAF884
:10388C00019B1B68184603B05DF804FB00B583B0C0
:10389C000190019B002B01D1FDF7ACF8019B1B683B
:1038AC00184603B05DF804FB70B5B6B005900491F2
:1038BC00039202930FAB17AA02990498FFF764FEC8
:1038CC0009AB3B9A04211846FEF703FC0023359301
:1038DC00E1E000233493CCE000233393B7E00023E2
:1038EC003293A2E0059B5C6817A8329B0093339B34
:1038FC00349A3599FEF7EAFC03465B00039A1344AD
:10390C00B3F9003023443193059B9C680FA8329B7C
:10391C000093339B349A3599FEF7D8FC03465B0031
:10392C003A9A1344B3F9003023443093059B9B69B6
:10393C00319A02FA03F32F93059B9B69309A02FA92
:10394C0003F32E93059BD969059B1B6A1A462F9886
:10395C00FEF7A7FC2D90059B596A059B9B6A1A469E
:10396C002E98FEF79EFC2C902D9A2C9B13442B9397
:10397C00059B1969059B5B691A462B98FEF791FC10
:10398C000246059BDB6813440893059B03F1300248
:10399C00059B2C332393239B229308AB21938DF807
:1039AC001C50229B2093219B1F93209B19681F9BCB
:1039BC001B689942B4BF01230023DBB2002B01D05A
:1039CC00219B01E0229B00BF00BF29922893299BD9
:1039DC002793289B26938DF81860269B2593279B6D
:1039EC002493259B1A68249B1B689A42B4BF01231D
:1039FC000023DBB2002B01D0269B01E0279B00BFEC
:103A0C0000BF1B682A9309A8329B0093339B349AFE
:103A1C003599FEF7AEFB03465B003C9A13442A9A99
:103A2C0012B21A80329B0133329309AB0321184630
:103A3C00FDF7F2FD0246329B9342B4BF01230023F3
:103A4C00DBB2002B7FF44EAF339B0133339309ABC6
:103A5C0002211846FDF7E0FD0246339B9342B4BFAA
:103A6C0001230023DBB2002B7FF439AF349B0133ED
:103A7C00349309AB01211846FDF7CEFD0246349B69
:103A8C009342B4BF01230023DBB2002B7FF424AF9D
:103A9C00359B0133359309AB00211846FDF7BCFD6E
:103AAC000246359B9342B4BF01230023DBB2002BAB
:103ABC007FF40FAF09AB1846FDF784FB36B070BD31
:103ACC0082B00346ADF80630BDF90630184602B098
:103ADC00704782B003460A46ADF806301346ADF87F
:103AEC000430BDF80620BDF8043013401BB2184654
:103AFC0002B0704782B003460091ADF80630BDF9B4
:103B0C000620009B42FA03F31BB2184602B0704722
:103B1C0000B583B003460A46ADF806301346ADF83F
:103B2C000430BDF90620BDF904309A42B4BF01231C
:103B3C000023DBB21BB2184600F06DF803461846A2
:103B4C0003B05DF804FB82B003460A46ADF80630BC
:103B5C001346ADF80430BDF80620BDF8043013440C
:103B6C009BB21BB2184602B0704700B583B0034637
:103B7C000A46ADF806301346ADF80430BDF9062000
:103B8C00BDF904309A42CCBF01230023DBB21BB237
:103B9C00184600F040F80346184603B05DF804FBE5
:103BAC0000B585B001900091012303930323029388
:103BBC001AE002990198FDF72FFD0146009B029A2D
:103BCC0043F82210009B029A0432039943F8221006
:103BDC0002990198FDF720FD0246039B02FB03F3BB
:103BEC000393029B013B0293029B002BE1DA00BF83
:103BFC0000BF05B05DF804FB84B003900291019204
:103C0C00039B5A6B029B1A60039B9A6B019B1A6075
:103C1C0000BF04B0704700B583B00346ADF8063062
:103C2C00BDF90630002B04D0002000F007F8034645
:103C3C0000E00023184603B05DF804FB82B0034695
:103C4C00ADF80630BDF80630DB431BB2184602B0A7
:103C5C00704730B597B00590049103920293029986
:103C6C00039824F0E7F9034683F00103DAB21B9BB7
:103C7C001A701A9B1B78092B04D01A9B1B78072BE4
:103C8C0040F0BA80039B1B695A421B9B9A62029BB1
:103C9C001B695A421B9BDA621A9B1A691B9B1A639B
:103CAC001A9B1B78072B01D10F2200E014221B9BBF
:103CBC005A62039B03F10C02029B0C330C920B9384
:103CCC000C9B0A930B9B09938DF818400A9B089345
:103CDC00099B0793089B93ED007A079BD3ED007A21
:103CEC00B4EEE77AF1EE10FA4CBF01230023DBB2FD
:103CFC00002B01D0099B01E00A9B00BF00BF1B6891
:103D0C00184655F065FF02460B4655F02DFB024652
:103D1C000B46CDE91423039BDB68184655F058FF7E
:103D2C00DDE9142355F0DCFC02460B46CDE91223E9
:103D3C00029BDB68184655F04BFFDDE9142355F068
:103D4C00CFFC02460B46CDE910231B9B5B6A01227C
:103D5C0002FA03F3184655F0B9FE04460D461A9BB9
:103D6C00DB68184655F034FF02460B4620462946C0
:103D7C0055F01EFC02460B46DDE9140155F0B0FC73
:103D8C0002460B46CDE90E231B9B03F114021B9B31
:103D9C000433194610469DED120B35F011FA1B9B9E
:103DAC0003F118021B9B0833194610469DED100BAE
:103DBC0035F006FA1B9B03F11C021B9B20331946A2
:103DCC0010469DED0E0B35F0FBF9049B19781B9BEF
:103DDC0003F10C021B9B1033009313461A9A05989F
:103DEC0024F0D2F803468DF837309DF83730002B8D
:103DFC0011D09DF8373010E01A9B1B78012B0BD19A
:103E0C00049B18781B9B03F134011B9B38331A4617
:103E1C0000F09CF800E000BF0023184617B030BD3E
:103E2C0010B58CB003900291029B1B69002B01D141
:103E3C00FCF7E0FD029B5B69002B01D1FCF7DAFD7E
:103E4C000398FDF7BCFC0B900B9B1B6818331B688D
:103E5C00002202990B9898470A900A9B002B0AD1D2
:103E6C00039B5C69344B00935623344A34490398C2
:103E7C00A04701235DE00B9B1B6818331B680122D4
:103E8C0002990B9898470990099B002B0AD1039B28
:103E9C005C692C4B00935923284A29490398A04765
:103EAC00012346E00B9B1B681C331B680022029904
:103EBC000B9898470890089B002B0AD1039B5C69D0
:103ECC00214B00935C231D4A1D490398A0470123F5
:103EDC002FE0029B1B690793029B5B690693079B70
:103EEC000193089B0093099B0A9A06990398FFF784
:103EFC00B0FE03468DF817309DF81730002B02D01A
:103F0C009DF8173015E00B9B1B6824331B680A992E
:103F1C000B9898470B9B1B6824331B6809990B98CB
:103F2C0098470B9B1B6824331B6808990B98984780
:103F3C00002318460CB010BD64B1050004B1050097
:103F4C004CB1050078B105008CB1050084B0034676
:103F5C00029101928DF80F309DF80F30012B08D192
:103F6C00029B4FF000021A60154A00BF019B1A60B9
:103F7C0023E09DF80F30032B07D1029B4FF000027A
:103F8C001A60019B0F4A1A6017E09DF80F30022B44
:103F9C0007D1029B0C4A1A60019B4FF07E521A60AB
:103FAC000BE0DFED0A7AF1EE677A00BF029BC3EDFE
:103FBC00007A034A00BF019B1A6000BF04B070472F
:103FCC00FFFF7F7F0000C040000080BFFFFF7F7FAE
:103FDC0030B59DB00390029101920093039BDA6A75
:103FEC00039B1B6B9A4201DDFCF704FD039B5B6892
:103FFC005B426FF07F0200BF934201DAFCF7FAFCE0
:10400C00039B5B685B427F2200BF934201DDFCF7A0
:10401C00F1FC0298FDF73EFB0346189300231B931B
:10402C008FE0039B5B681793039B9B69179A02FABB
:10403C0003F31693039BD969039B1B6A1A461698C4
:10404C00FEF72FF91A900023199322E0039B5B686B
:10405C00199A920000990A4411681B9A0A4492F921
:10406C00002013441493039B9B69149A02FA03F3E4
:10407C001393039BD969039B1B6A1A461398FEF78B
:10408C0010F912901A9A129B13441A93199B01332C
:10409C001993199A019B9A42D8D3039B1969039BD4
:1040AC005B691A461A98FEF7FCF80246039BDB681C
:1040BC0013440693039B03F13002039B2C330B93A5
:1040CC000B9B0A9306AB09938DF814400A9B08933B
:1040DC00099B0793089B1968079B1B689942B4BFFF
:1040EC0001230023DBB2002B01D0099B01E00A9BCA
:1040FC0000BF00BF11921093119B0F93109B0E9356
:10410C008DF810500E9B0D930F9B0C930D9B1A6802
:10411C000C9B1B689A42B4BF01230023DBB2002B1B
:10412C0001D00E9B01E00F9B00BF00BF1B681593D5
:10413C00209A1B9B1344159A52B21A701B9B013385
:10414C001B931B9A189B9A42FFF46BAF00BF00BFE6
:10415C001DB030BD82B00190019B1B68002B03D0B9
:10416C00019B1B681B6800E00023184602B07047D7
:10417C0082B00190019B5B68002B03D0019B5B68B4
:10418C001B6800E00023184602B0704730B59BB0A6
:10419C00059004910498FFF7DDFF1890189B012BF4
:1041AC000ADC059B5C69904B009333238F4A904942
:1041BC000598A0470123E5E10498FFF7D9FF0346D2
:1041CC00012B14BF01230023DBB2002B13D0059B62
:1041DC005C690498FFF7CCFF03460122039202931B
:1041EC00844B0193844B00933423804A8349059874
:1041FC00A0470123C6E10598FDF7E1FA1790179B3C
:10420C001B6818331B68002204991798984716905E
:10421C00169B002B0AD1059B5C69794B00933923C3
:10422C00724A73490598A0470123ABE1179B1B68A1
:10423C001C331B6800220499179898471590159BFE
:10424C00002B0AD1059B5C696E4B00933C23674A9B
:10425C0067490598A047012394E1159B1A78169B92
:10426C001B789A421AD0059B5C69159B1B781846E3
:10427C0005F052FC0546169B1B78184605F04CFCC5
:10428C00034603930295604B0193604B00933F23CD
:10429C00564A5F490598A047012373E101231993FE
:1042AC0081E0179B1B6818331B68199A049917989F
:1042BC0098470890089B002B0AD1059B5C69554BCD
:1042CC0000934223494A4A490598A047012359E1E2
:1042DC000899169823F0AEFE034683F00103DBB277
:1042EC00002B0AD0059B5C694B4B009343233F4A40
:1042FC003F490598A047012344E1169B1A78089B77
:10430C001B789A421AD0059B5C69169B1B78184641
:10431C0005F002FC0546089B1B78184605F0FCFBD3
:10432C000346039302953D4B0193374B0093442373
:10433C002E4A37490598A047012323E1169B1B7889
:10434C00092B26D1169B1A69089B1B699A420AD025
:10435C00059B5C69324B00934823244A24490598F9
:10436C00A04701230EE1169B93ED037A089BD3ED36
:10437C00037AB4EE677AF1EE10FA0AD0059B5C6909
:10438C00284B00934A23194A19490598A047012341
:10439C00F8E0179B1B6824331B68089917989847FB
:1043AC00199B01331993199A189B9A42FFF679AF0E
:1043BC00159B1B78012B37D1189B9B000A93059BEF
:1043CC001B6C07AA0A990598984703468DF8273065
:1043DC009DF82730002B02D09DF82730D2E0079BA8
:1043EC001A46049B1A61BEE0FCB10500A0B10500A1
:1043FC00E4B1050028B205002CB205000CB2050092
:10440C0040B2050060B2050090B20500ACB20500E8
:10441C0074B20500BCB20500D0B20500FCB20500B8
:10442C0008B305004CB30500159B1B78092B40F015
:10443C008E80059B9B6B2821059898470246049B10
:10444C001A61049B1B691493189B9B001393059B87
:10445C001B6C149A243213990598984703468DF8CF
:10446C004B309DF84B30002B02D09DF84B3089E03F
:10447C00169B1B695A42149B9A60159B1A69149BD4
:10448C00DA60149B14221A62169BDB68184655F0EE
:10449C009FFB02460B4654F067FF02460B46CDE9E4
:1044AC001023169BDB68184655F092FBDDE91023B0
:1044BC0055F016F902460B46CDE90E23149B1B6AE8
:1044CC00012202FA03F3184655F000FB04460D4690
:1044DC00159BDB68184655F07BFB02460B462046C5
:1044EC00294655F065F802460B46DDE9100155F0FA
:1044FC00F7F802460B46CDE90C23149B03F110028E
:10450C00149B1833194610469DED0E0B34F058FED3
:10451C00149B03F11402149B1C33194610469DED99
:10452C000C0B34F04DFE149A149B04330093134679
:10453C00159A0021059823F027FD03468DF82F309E
:10454C009DF82F30002B0ED09DF82F301AE0159BC4
:10455C001B78184605F0E0FA034619460B484EF056
:10456C003DF801230EE0179B1B6824331B6816993A
:10457C0017989847179B1B6824331B681599179835
:10458C009847002318461BB030BD00BF84B305000C
:10459C0000B583B00190009100990198FFF7F6FDEA
:1045AC000346184603B05DF804FB000000B585B067
:1045BC000190009100220099019823F01EFE0390B7
:1045CC00039B1B7A012B05D1039A0099019800F0EB
:1045DC0033F815E0039B1B7A092B05D1039A00993C
:1045EC00019800F051F80BE0039B1B7A184605F07C
:1045FC0093FA0346194605484DF0F0FF012300E0FD
:10460C000023184605B05DF804FB00BF84B3050019
:10461C0000B585B00390039800230093044B054A22
:10462C00002123F088FD00BF039805B05DF804FB62
:10463C00B94500009D45000010B58EB00390029165
:10464C0001920298FFF786FD0D90029B1B690C935B
:10465C000C9A0299039800F060F80B9005AB019945
:10466C00184623F009FE0D9C0198FCF717FF034632
:10467C0005A80B9A214600F07EF805AB1846FCF70E
:10468C00A1FD00BF0EB010BD10B5AAB005900491ED
:10469C0003920498FFF75EFD2990049B1B692893F5
:1046AC00289B5B6A1A460499059800F0A1F827909C
:1046BC00289B1B6A0C93289B9B680793289B1B6960
:1046CC000D93289B9B690E93289BDB680993289B71
:1046DC005B690A93289BDB690B93289B1868289BC2
:1046EC005B6806AA1946FFF7B6F821AB0399184682
:1046FC0023F0C2FD299C0398FCF7ECFE034621A98C
:10470C0006A80093279B2246FFF762FC21AB1846B4
:10471C00FCF758FD00BF2AB010BD10B58AB003904D
:10472C00029101920298FFF715FD0890039B5B6CB8
:10473C000199039898470790079B069300230993C8
:10474C0011E0099A0299039823F048FD0590099B02
:10475C009B00069AD4180598FCF792FE034623603A
:10476C00099B01330993099A089B9A42E9DB069B42
:10477C0018460AB010BD00B589B0039002910192A1
:10478C0000930398FCF786FF0346049300230793DA
:10479C0025E04FF0000306930023059312E0059BE0
:1047AC009B00019A13441A68079B9B001344D3ED9A
:1047BC00007A9DED067A77EE277ACDED067A059B89
:1047CC0001330593059A029B9A42E8D3079B9B0001
:1047DC00009A1344069A1A60079B01330793079AB1
:1047EC00049B9A42D5D300BF00BF09B05DF804FB0F
:1047FC0010B58AB00390029101920298FFF7AAFCBF
:10480C000890039B5B6C0199039898470790079B52
:10481C0006930023099311E0099A0299039823F057
:10482C00DDFC0590099B9B00069AD4180598FCF7B3
:10483C0043FE03462360099B01330993099A089BA5
:10484C009A42E9DB069B18460AB010BD10B493B02F
:10485C00039002910192039B1193119B1093109B57
:10486C000F93109B00221A60109B00225A60109B21
:10487C000833002205920E930E9A05AB0D930D9BF7
:10488C000C920B930B9B0A930C9B00221A6006ABA9
:10489C0009930E9B08938DF81040089B079300BF5B
:1048AC00039813B05DF8044B704710B491B00190AD
:1048BC000091019B0F930F9B0E930E9B0D930E9BE0
:1048CC0000221A600E9B00225A600E9B08330022B5
:1048DC0003920C930C9A03AB0B930B9B0A920993C8
:1048EC00099B08930A9B00221A6004AB07930C9B4C
:1048FC0006938DF80840069B059300BF019811B0F4
:10490C005DF8044B704710B491B001900091019B7D
:10491C000F930F9B0E930E9B0D930E9B00221A6010
:10492C000E9B00225A600E9B0833002203920C93BC
:10493C000C9A03AB0B930B9B0A920993099B08935C
:10494C000A9B00221A6004AB07930C9B06938DF80C
:10495C000840069B059300BF019811B05DF8044B0D
:10496C007047000082B00190034A019B1A60019BC2
:10497C00184602B0704700BF8CB6050000B583B076
:10498C0001900198FFF7EEFF019856F089F9019B11
:10499C00184603B05DF804FB82B001900123184661
:1049AC0002B0704700B585B0039002910192039B51
:1049BC001B6820331B6802990398984703461846D6
:1049CC0005B05DF804FB00B585B00390029101922F
:1049DC00039B1B6824331B68029903989847034672
:1049EC00184605B05DF804FB00B583B00190064A8B
:1049FC00019B1A60019B1846FFF7B4FF019B1846F8
:104A0C0003B05DF804FB00BF58B6050000B583B0D9
:104A1C0001900198FFF7E8FF019856F041F9019BCE
:104A2C00184603B05DF804FB00B583B00190064A4C
:104A3C00019B1A60019B1846FFF7D6FF019B184695
:104A4C0003B05DF804FB00BF24B6050000B583B0CD
:104A5C0001900198FFF7E8FF019856F021F9019BAE
:104A6C00184603B05DF804FB10B5DCB05CABA3F5E5
:104A7C00B67318605CABA3F5B6731B68184600F0F0
:104A8C0019FBC54A5CABA3F5B6731B681A605CAB2B
:104A9C00A3F5B6731B68184600F02CFB5CABA3F5B2
:104AAC00B6731C685CABA3F5B4731846FEF778FBC1
:104ABC0002AB1946204600F031FB5CABA3F5B67394
:104ACC001B68184600F03CFB5CABA3F5B6731B6887
:104ADC00184600F049FB5CABA3F5B6731B6818468F
:104AEC0000F056FB5CABA3F5B6731B68184600F0E0
:104AFC0063FB5CABA3F5B6731C685CABA3F5A2734C
:104B0C00184633F0FFF80BAB1946204600F068FB53
:104B1C005CABA3F5B6731B68184600F073FB5CAB7B
:104B2C00A3F5B6731B68184600F080FB5CABA3F5CD
:104B3C00B6731B68184600F08DFB5CABA3F5B6731F
:104B4C001B68184600F09AFB5CABA3F5B6731B68A8
:104B5C00184600F0A7FB5CABA3F5B6731B681846B0
:104B6C0000F0B4FB5CABA3F5B6731B68184600F001
:104B7C00C1FB5CABA3F5B6731B68184600F0CCFB0D
:104B8C005CABA3F5B6731C685CABA3F590731846CD
:104B9C000CF0BAFB14AB1946204600F0D1FB5CAB11
:104BAC00A3F5B6731B68184600F0DCFB5CABA3F5F1
:104BBC00B6731B68184600F0E9FB5CABA3F5B67343
:104BCC001B68184600F0F6FB5CABA3F5B6731C68CB
:104BDC001DAB18460FF0A0F81DAB1946204600F08F
:104BEC00FDFB5CABA3F5B6731B68184600F008FC24
:104BFC005CABA3F5B6731B68184600F015FC5CABF8
:104C0C00A3F5B6731B68184600F020FC5CABA3F54B
:104C1C00B6731B68184600F02DFC5CABA3F5B6739D
:104C2C001B68184600F03AFC5CABA3F5B6731B6826
:104C3C00184600F047FC5CABA3F5B6731B6818462E
:104C4C0000F058FC5CABA3F5B6731B68184600F07B
:104C5C0065FC5CABA3F5B6731B68184600F072FCE0
:104C6C005CABA3F5B6731B68184600F07FFC5CAB1D
:104C7C00A3F5B6731B68184600F08CFC5CABA3F56F
:104C8C00B6731B68184600F099FC5CABA3F5B673C1
:104C9C001C6826AB18461FF0C7FE26AB19462046EB
:104CAC0000F0A0FC5CABA3F5B6731B68184600F0D3
:104CBC00ABFC5CABA3F5B6731B68184600F0B8FCF4
:104CCC005CABA3F5B6731B68184600F0C5FC5CAB77
:104CDC00A3F5B6731B68184600F0D2FC5CABA3F5C9
:104CEC00B6731B68184600F0DFFC5CABA3F5B6731B
:104CFC001B68184600F0ECFC5CABA3F5B6731B68A4
:104D0C00184600F0F9FC5CABA3F5B6731B681846AB
:104D1C0000F006FD5CABA3F5B6731B68184600F0FB
:104D2C0013FD5CABA3F5B6731B68184600F020FDB1
:104D3C005CABA3F5B6731B68184600F02DFD5CAB9D
:104D4C00A3F5B6731B68184600F03AFD5CABA3F5EF
:104D5C00B6731B68184600F047FD5CABA3F5B67341
:104D6C001B68184600F054FD5CABA3F5B6731B68CA
:104D7C00184600F061FD5CABA3F5B6731B681846D2
:104D8C0000F06EFD5CABA3F5B6731B68184600F023
:104D9C007BFD5CAB02E000BFF0B50500A3F5B6737C
:104DAC001C682FAB184632F0C3FF2FAB19462046B8
:104DBC0000F07EFD5CABA3F5B6731B68184600F0E3
:104DCC0089FD5CABA3F5B6731B68184600F096FD25
:104DDC005CABA3F5B6731B68184600F0A3FD5CAB87
:104DEC00A3F5B6731B68184600F0B0FD5CABA3F5D9
:104DFC00B6731C6838AB18462EF0CEFC38AB19468F
:104E0C00204600F0B7FD5CABA3F5B6731B681846E3
:104E1C0000F0C2FD5CABA3F5B6731B68184600F03E
:104E2C00CFFD5CABA3F5B6731B68184600F0DCFD38
:104E3C005CABA3F5B6731C6841AB184631F02AF88D
:104E4C0041AB1946204600F0E3FD5CABA3F5B6730D
:104E5C001B68184600F0EEFD5CABA3F5B6731B683F
:104E6C00184600F0FBFD5CABA3F5B6731B68184647
:104E7C0000F008FE5CABA3F5B6731B68184600F097
:104E8C0015FE5CABA3F5B6731B68184600F022FE4A
:104E9C005CABA3F5B6731B68184600F02FFE5CAB39
:104EAC00A3F5B6731B68184600F03CFE5CABA3F58B
:104EBC00B6731B68184600F049FE5CABA3F5B673DD
:104ECC001B68184600F056FE5CABA3F5B6731B6866
:104EDC00184600F063FE5CABA3F5B6731B6818466E
:104EEC0000F070FE5CABA3F5B6731B68184600F0BF
:104EFC007DFE5CABA3F5B6731B68184600F08AFE0A
:104F0C005CABA3F5B6731B68184600F097FE5CAB60
:104F1C00A3F5B6731B68184600F0A4FE5CABA3F5B2
:104F2C00B6731B68184600F0B1FE5CABA3F5B67304
:104F3C001C684AAB18463DF0CDFD4AAB19462046DD
:104F4C0000F0B8FE5CABA3F5B6731B68184600F016
:104F5C00C3FE5CABA3F5B6731B68184600F0D0FE1D
:104F6C005CABA3F5B6731B68184600F0DDFE5CABBA
:104F7C00A3F5B6731B68184600F0EAFE5CABA3F50C
:104F8C00B6731B68184600F0F7FE5CABA3F5B6735E
:104F9C001B68184600F004FF5CABA3F5B6731B68E6
:104FAC00184600F011FF5CABA3F5B6731B681846EE
:104FBC0000F01EFF5CABA3F5B6731B68184600F03F
:104FCC002BFF5CABA3F5B6731B68184600F038FFDB
:104FDC005CABA3F5B6731B68184600F045FF5CABE1
:104FEC00A3F5B6731C6853AB184645F0FDFB53ABE9
:104FFC001946204600F04CFF5CABA3F5B6731B685A
:10500C00184600F057FF5CABA3F5B6731B68184647
:10501C0000F064FF5CABA3F5B6731B68184600F098
:10502C0071FF5CABA3F5B6731B68184600F07EFFEE
:10503C005CABA3F5B6731B68184600F08BFF5CAB3A
:10504C00A3F5B6731B68184600F098FF5CABA3F58C
:10505C00B6731B68184600F0A5FF5CABA3F5B673DE
:10506C001B68184600F0B2FF5CABA3F5B6731B6867
:10507C0018465CB010BD00BF82B00190034A019B82
:10508C001A60019B184602B0704700BF8CB6050031
:10509C0000B583B00190019B1846FFF7EDFF044A61
:1050AC00019B1A60019B184603B05DF804FB00BF1E
:1050BC0058B6050000B583B00190019B1846FFF768
:1050CC00E7FF0B4A019B1A60019B03F580531A46BC
:1050DC000023C2F80432019B03F580531A460023C7
:1050EC00C2F80836019B184603B05DF804FB00BFFC
:1050FC0024B6050000B58DB0019003AB184614F032
:10510C0001FF03AA044B6521019800F073FF0346CD
:10511C0018460DB05DF804FBDDE2010000B583B06C
:10512C0001900091054B009A0021019800F062FF5C
:10513C000346184603B05DF804FB00BFF1E2010022
:10514C0000B58DB0019003AB1846FFF761FA03AAC6
:10515C00044B6A21019800F04DFF034618460DB030
:10516C005DF804FB31E4010000B58DB0019003AB98
:10517C00184601F0A3F903AA044B3821019800F05A
:10518C0039FF034618460DB05DF804FB45E40100F9
:10519C0000B58DB0019003AB184601F0A1F903AA3C
:1051AC00044B4F21019800F025FF034618460DB023
:1051BC005DF804FB7DE5010000B58DB0019003ABFB
:1051CC00184601F065FD03AA044B9021019800F0EC
:1051DC0011FF034618460DB05DF804FBB5E601005F
:1051EC0000B583B001900091054B009A0121019804
:1051FC0000F000FF0346184603B05DF804FB00BF47
:10520C00B1FD010000B58DB0019003AB184601F063
:10521C007BFF03AA044B2521019800F0EBFE03460B
:10522C0018460DB05DF804FBC7E6010000B58DB063
:10523C00019003AB184602F03BFB03AA044B9121EF
:10524C00019800F0D7FE034618460DB05DF804FB3C
:10525C00D9E6010000B58DB0019003AB184602F001
:10526C0083FE03AA044B8221019800F0C3FE03467F
:10527C0018460DB05DF804FBEBE6010000B58DB0EF
:10528C00019003AB184603F0A1F803AA044B81214B
:10529C00019800F0AFFE034618460DB05DF804FB14
:1052AC00FDE6010000B58DB0019003AB184603F08C
:1052BC00D3F903AA044B3521019800F09BFE034659
:1052CC0018460DB05DF804FB19E8010000B58DB06F
:1052DC00019003AB184604F05BF903AA044B682158
:1052EC00019800F087FE034618460DB05DF804FBEC
:1052FC0089E9010000B583B0019004F023FA03465C
:10530C001A460449019800F00DFF0346184603B0F5
:10531C005DF804FB3CB4050000B58DB0019003AB07
:10532C00184609F069FE03AA044B0221019800F00B
:10533C0061FE034618460DB05DF804FB9DE90100C3
:10534C0000B583B001900091054B009A03210198A0
:10535C0000F050FE0346184603B05DF804FB00BF96
:10536C00DDEA010000B58DB0019003AB184614F0D6
:10537C00F3FD03AA044B6C21019800F03BFE03469D
:10538C0018460DB05DF804FBB9ED010000B58DB009
:10539C00019003AB18460DF0CBFA03AA044B802105
:1053AC00019800F027FE034618460DB05DF804FB8B
:1053BC0085EC010000B58DB0019003AB18460DF0E3
:1053CC00DFFD03AA044B0521019800F013FE0346F0
:1053DC0018460DB05DF804FBCDED010000B583B0AF
:1053EC0001900091054B009A0421019800F002FEF7
:1053FC000346184603B05DF804FB00BFE9EE01005C
:10540C0000B58DB0019003AB18460FF099F803AAC4
:10541C00044B0621019800F0EDFD034618460DB033
:10542C005DF804FBA9F0010000B583B0019011F008
:10543C00C5FE03461A460449019800F073FE034664
:10544C00184603B05DF804FB4CB4050000B58DB0F4
:10545C00019003AB184613F097FA03AA044B2A21C8
:10546C00019800F0C7FD034618460DB05DF804FB2B
:10547C00BDF0010000B58DB0019003AB184616F0DD
:10548C0003FC03AA044B6F21019800F0B3FD034603
:10549C0018460DB05DF804FBE5F1010000B58DB0C8
:1054AC00019003AB184605F06BFC03AA044B472193
:1054BC00019800F09FFD034618460DB05DF804FB03
:1054CC00F7F1010000B585B0019016F0D1FC039006
:1054DC00039B002B09D016F0CFFC0346039A194608
:1054EC00019800F01FFE034600E00023184605B0AB
:1054FC005DF804FB00B58DB0019003AB184616F0B7
:10550C0065FE03AA044B2F21019800F073FD03469E
:10551C0018460DB05DF804FB09F2010000B58DB022
:10552C00019003AB184617F0F3F803AA044B46217D
:10553C00019800F05FFD034618460DB05DF804FBC2
:10554C001BF2010000B58DB0019003AB184617F0AB
:10555C00CFFA03AA044B5E21019800F04BFD0346E1
:10556C0018460DB05DF804FB2DF2010000B58DB0AE
:10557C00019003AB18461EF0B7F803AA044B0821A0
:10558C00019800F037FD034618460DB05DF804FB9A
:10559C003FF2010000B58DB0019003AB18461EF030
:1055AC0009FA03AA044B5A21019800F023FD034683
:1055BC0018460DB05DF804FB51F2010000B58DB03A
:1055CC00019003AB18461EF061FD03AA044B5F214A
:1055DC00019800F00FFD034618460DB05DF804FB72
:1055EC0063F2010000B583B001900091054B009A65
:1055FC000921019800F0FEFC0346184603B05DF843
:10560C0004FB00BF75F2010000B58DB0019003AB37
:10561C0018461FF01DFF03AA044B2421019800F02B
:10562C00E9FC034618460DB05DF804FB15F40100C7
:10563C0000B58DB0019003AB184620F015FB03AA02
:10564C00044B6B21019800F0D5FC034618460DB0B5
:10565C005DF804FB6DF5010000B58DB0019003AB56
:10566C00184605F0B9FB03AA044B3D21019800F044
:10567C00C1FC034618460DB05DF804FB7FF5010034
:10568C0000B58DB0019003AB184605F0BBFB03AA27
:10569C00044B3E21019800F0ADFC034618460DB0BA
:1056AC005DF804FB91F5010000B58DB0019003ABE2
:1056BC00184621F041FB03AA044B7521019800F018
:1056CC0099FC034618460DB05DF804FBA3F50100E8
:1056DC0000B58DB0019003AB184621F0EBFF03AA87
:1056EC00044B7621019800F085FC034618460DB05A
:1056FC005DF804FBB5F5010000B58DB0019003AB6E
:10570C00184623F003FF03AA044B0B21019800F069
:10571C0071FC034618460DB05DF804FBE9F6010078
:10572C0000B58DB0019003AB184623F081FB03AAA2
:10573C00044B0C21019800F05DFC034618460DB09B
:10574C005DF804FBB1FD010000B58DB0019003AB19
:10575C00184623F0A9FF03AA044B6221019800F01C
:10576C0049FC034618460DB05DF804FB11F8010026
:10577C0000B58DB0019003AB184605F059FB03AA98
:10578C00044B3A21019800F035FC034618460DB045
:10579C005DF804FB31F9010000B58DB0019003AB4D
:1057AC00184605F05BFB03AA044B3F21019800F05F
:1057BC0021FC034618460DB05DF804FB43F90100CB
:1057CC0000B58DB0019003AB184614F0D9FB03AAB9
:1057DC00044B4921019800F00DFC034618460DB00E
:1057EC005DF804FB55F9010000B58DB0019003ABD9
:1057FC00184625F009FE03AA044B5621019800F027
:10580C00F9FB034618460DB05DF804FB67F901007F
:10581C0000B58DB0019003AB184614F003FC03AA3D
:10582C00044B5721019800F0E5FB034618460DB0D8
:10583C005DF804FB79F9010000B58DB0019003AB64
:10584C00184625F0CFFD03AA044B5421019800F013
:10585C00D1FB034618460DB05DF804FB8BF9010033
:10586C0000B58DB0019003AB184626F027FA03AAB9
:10587C00044B0E21019800F0BDFB034618460DB0F9
:10588C005DF804FB9DF9010000B58DB0019003ABF0
:10589C00184624F08DFD03AA044B3221019800F028
:1058AC00A9FB034618460DB05DF804FBAFF90100E7
:1058BC0000B583B001900091054B009A112101981D
:1058CC0000F098FB0346184603B05DF804FB00BFDC
:1058DC00B1FD010000B58DB0019003AB184627F067
:1058EC0063FD03AA044B3721019800F083FB0346A8
:1058FC0018460DB05DF804FBC1F9010000B58DB080
:10590C00019003AB184635F0D9F903AA044B2821B2
:10591C00019800F06FFB034618460DB05DF804FBD0
:10592C0091FF010000B58DB0019003AB184627F034
:10593C004DFD03AA044B3921019800F05BFB034693
:10594C0018460DB05DF804FBD3F9010000B58DB01D
:10595C00019003AB18462DF0FBFD03AA044B642108
:10596C00019800F047FB034618460DB05DF804FBA8
:10597C00E5F9010000B583B001900091054B009A48
:10598C001221019800F036FB0346184603B05DF86F
:10599C0004FB00BF0DFB010000B58DB0019003AB03
:1059AC0018462FF069F903AA044B3B21019800F02B
:1059BC0021FB034618460DB05DF804FB35FC0100D5
:1059CC0000B58DB0019003AB184605F0EFF903AAB2
:1059DC00044B4821019800F00DFB034618460DB00E
:1059EC005DF804FB47FC010000B58DB0019003ABE2
:1059FC0018462FF08FFA03AA044B5321019800F09C
:105A0C00F9FA034618460DB05DF804FB59FC010089
:105A1C0000B583B001900091054B009A22210198AA
:105A2C0000F0E8FA0346184603B05DF804FB00BF2B
:105A3C008DFD010000B58DB0019003AB184630F020
:105A4C003FFA03AA044B3C21019800F0D3FA034619
:105A5C0018460DB05DF804FB9FFD010000B58DB03C
:105A6C00019003AB184633F019F803AA044B362106
:105A7C00019800F0BFFA034618460DB05DF804FB20
:105A8C0059FF010000B58DB0019003AB184633F0FF
:105A9C0029FD03AA044B7221019800F0ABFA0346CE
:105AAC0018460DB05DF804FB6BFF010000B58DB01E
:105ABC00019003AB184635F08DF803AA044B8F21E7
:105ACC00019800F097FA034618460DB05DF804FBF8
