:1000000000000420190200000102000003020000A9
:1000100005020000070200000902000000000000C5
:100020000000000000000000000000000B020000C3
:100030000D020000000000000F020000110200008D
:100040001302000013020000053B05007D66050059
:100050001302000013020000FD3905001302000026
:10006000130200001302000013020000130200003C
:10007000130200001302000013020000130200002C
:1000800013020000A5800500130200001302000007
:10009000130200001302000013020000130200000C
:1000A00013020000130200001302000013020000FC
:1000B0001302000013020000000000000000000016
:1000C00013020000130200001302000013020000DC
:1000D00013020000130200001302000013020000CC
:1000E00013020000130200001302000000000000D1
:1000F00000000000130200000000000013020000D6
:1001000000000000000000000000000000000000EF
:1001100000000000000000000000000000000000DF
:1001200000000000000000000000000000000000CF
:1001300000000000000000000000000000000000BF
:1001400000000000000000000000000000000000AF
:10015000000000000000000000000000000000009F
:10016000000000000000000000000000000000008F
:10017000000000000000000000000000000000007F
:10018000000000000000000000000000000000006F
:10019000000000000000000000000000000000005F
:1001A000000000000000000000000000000000004F
:1001B000000000000000000000000000000000003F
:1001C000000000000000000000000000000000002F
:1001D000000000000000000000000000000000001F
:1001E000000000000000000000000000000000000F
:1001F00000000000000000000000000000000000FF
:10020000FEE7FEE7FEE7FEE7FEE7FEE7FEE7FEE7C6
:10021000FEE7FEE700F002B8FFF7FCBF0F484FF023
:100220000701884385460E4880470E48016841F41F
:1002300070010160BFF34F8FBFF36F8F00F01AB8EA
:1002400009480A490A4A884207D0521A05D0037859
:1002500001300B700131013AF9D1704700000420E0
:10026000ED14000088ED00E0E0CD05000000002066
:1002700000000020344935480A1A02D00722914371
:100280008D46334933480A1A06D00722914381F339
:100290000988022282F314882F483049304A00F03E
:1002A00041F830483049314A00F03CF83048314993
:1002B000314A00F037F831483149324A00F032F81B
:1002C00031483249324A00F02DF832483249334A37
:1002D00000F028F832483349334A00F023F8334815
:1002E0003349002200F029F832483349002200F057
:1002F00024F832483249091A5CF0F4FC314A90473C
:100300001F482049884205D00268043003B4904752
:1003100003BCF7E700208646EC46002000212A4A6D
:100320009047FEE7884207D0521A05D00378013083
:100330000B700131013AF9D17047884202D0027046
:100340000130FAE7704700000000042000E00320BD
:1003500000000420000004209CBA060000000020D9
:10036000C40C0020CC030000CC03000064CD0500C9
:100370009CBA06000000002000000020E0CD05002F
:10038000E0CD0500E0CD0500E0CD0500E0CD0500A5
:10039000E0CD0500E0CD0500E0CD05009ABA0600ED
:1003A00060C70600C40C0020C40C0020C40C002050
:1003B0006C3700206C370020703700207037002029
:0C03C0007057002041020000E50400001E
:1003CC0000B585B003468DF807309DF807300E2B2D
:1003DC0002D00F2B0FD03EE0204B1B78002B06D009
:1003EC001E4B1B78013BDAB21C4B1A7012E01B4BF4
:1003FC0017221A700EE0194B1B78172B06D0174BCF
:10040C001B780133DAB2154B1A7002E0134B002241
:10041C001A7000BF114B1B78184600F043FE039076
:10042C000F4A104BD31ADB081B0443F003030B4A8F
:10043C00127811460C4A52F821200C49184659F0F2
:10044C00E7FC039B0293029B002B04D0084A622119
:10045C00029856F0D1FD05B05DF804FBC40C0020E9
:10046C008CCD050064CD05000000002058D005009F
:10047C005CD005004FF080430122C3F818254FF0E3
:10048C0080430022C3F804214FF0804301229A607C
:10049C0000BF4FF08043D3F80431002BF9D000BFDC
:1004AC0000BF704700B583B00949032000F014FE6B
:1004BC000190019B0093009B002B04D0054A7D21E9
:1004CC00009856F099FD00BF03B05DF804FB00BF27
:1004DC00CD0300005CD0050000B585B0FFF7CAFF66
:1004EC0057F0C8F80390039B0293029B002B04D097
:1004FC00244A8621029856F07FFD4FF4804100205B
:10050C0059F0AEF90190019B002B04D01D4A8821B3
:10051C00019856F071FD59F025F91B4A1B4BD31A63
:10052C00DB081B0443F003031949184659F062FC1D
:10053C00FFF7B8FF5AF086FB5AF0B2FB52F042FAC2
:10054C00B7EE000A52F0F8FAB0EE000A52F0F4FAE4
:10055C00B0EE080A52F0F0FAB1EE000A52F0ECFAE2
:10056C00B1EE040A52F0E8FAB1EE080A52F0E4FADD
:10057C0000BF59F09BFC0346002BFAD140BF20BFB3
:10058C0020BFF6E75CD005008CCD050064CD0500DE
:10059C0098D0050000B583B00190019B1B681846EC
:1005AC0000F002F90346002B04D10B494FF4F6700E
:1005BC0057F080FD019B1B681F2B02D84FF0A04306
:1005CC0006E0019B1B6803F01F02019B1A60034BA2
:1005DC00184603B05DF804FBC8D0050000030050BA
:1005EC0000B585B00190084611461A4603468DF8B1
:1005FC0003300B468DF8023013468DF8013001ABF9
:10060C001846FFF7C7FF03909DF803209DF80230B2
:10061C005B001A439DF801309B001A439DF818307B
:10062C001B0242EA03019DF81C301B04019A19437A
:10063C00039B02F5E07243F8221000BF05B05DF891
:10064C0004FB00B585B003900023019300230093B5
:10065C000023012201210398FFF7C2FF00BF05B060
:10066C005DF804FB00B585B003900B468DF80B309C
:10067C009DF80B30002201920022009200220021F2
:10068C000398FFF7ADFF00BF05B05DF804FB00B5A4
:10069C0085B0019001AB1846FFF77CFF0390019BDE
:1006AC00012202FA03F31946039800F069F800BF1F
:1006BC0005B05DF804FB00B585B0019001AB1846A0
:1006CC00FFF768FF0390019B012202FA03F319461E
:1006DC00039800F05FF800BF05B05DF804FB00B5AF
:1006EC0085B0019001AB1846FFF754FF0390039BB4
:1006FC00D3F804350293029BDA43019B012101FAE2
:10070C0003F31A40039BC3F80825019B01229A406E
:10071C00029B1A40039BC3F80C2500BF05B05DF883
:10072C0004FB00B583B001900091009B002B03D11A
:10073C000198FFF7C0FF02E00198FFF7A8FF00BF88
:10074C0003B05DF804FB00B585B0019001AB184611
:10075C00FFF720FF0390039800F00AF80246019B74
:10076C0022FA03F303F00103184605B05DF804FB0D
:10077C0082B00190019BD3F80435184602B0704743
:10078C0082B001900091019B009AC3F8082500BF2C
:10079C0002B0704782B001900091019B009AC3F89F
:1007AC000C2500BF02B0704784B00190019B5B091F
:1007BC00029300230393029B002B03D0029B012B7B
:1007CC0004D007E04FF0FF33039303E04FF6FF73C1
:1007DC00039300BF019B03F01F030193039A019B3A
:1007EC0022FA03F303F00103002B14BF01230023AF
:1007FC00DBB2184604B0704700B585B00190019B80
:10080C00032B03D911493A2057F054FC104A019B91
:10081C0013441B781846FFF796FF0346002B14BFB2
:10082C00012300238DF80F309DF80F30002B14BFDF
:10083C0001230023DBB283F00103DBB203F00103DD
:10084C00DBB2184605B05DF804FB00BF0CD1050007
:10085C0050D1050000B583B00190019B032B03D947
:10086C000749412057F026FC064A019B13441B788C
:10087C0000211846FFF755FF00BF03B05DF804FBDD
:10088C000CD1050050D1050000B583B00190019B3F
:10089C00032B03D90749472057F00CFC064A019B50
:1008AC0013441B7801211846FFF73BFF00BF03B030
:1008BC005DF804FB0CD1050050D1050000B583B0E8
:1008CC000023019305E00198FFF7DEFF019B013344
:1008DC000193019B032BF6D900BF00BF03B05DF859
:1008EC0004FB00B583B00023019305E00198FFF7EA
:1008FC00B1FF019B01330193019B032BF6D900BF80
:10090C0000BF03B05DF804FB00B583B00190019B00
:10091C00032B03D907495F2057F0CCFB064A019BF8
:10092C0013441B781846FFF7DAFE00BF03B05DF8DE
:10093C0004FB00BF0CD1050050D1050000B583B0FD
:10094C000023019309E0094A019B13441B781846C4
:10095C00FFF777FE019B01330193019B032BF2D927
:10096C00FFF7ACFF00BF03B05DF804FB50D10500EE
:10097C0000B583B0002301930AE0094A019B13449C
:10098C001B7803211846FFF76DFE019B0133019381
:10099C00019B032BF1D900BF00BF03B05DF804FB32
:1009AC0054D1050084B001904FF0FF330293002323
:1009BC0003930DE00A4A039B13441B781A46019BD0
:1009CC00934202D1039B029305E0039B01330393F3
:1009DC00039B032BEED9029B184604B0704700BF53
:1009EC0054D1050000B583B00190019B03F00103C5
:1009FC00002B01D0FFF7A2FF019B03F00203002B99
:100A0C0001D0FFF7B5FF00BF03B05DF804FB000099
:100A1C0000B587B003460A468DF8073013468DF8AB
:100A2C00063000238DF81730002304939DF807300F
:100A3C001846FFF7B7FF0490049B032B62D89DF870
:100A4C000630022B52D0022B5CDC002B31D0012B58
:100A5C0058D13549049A13465B0013440B441B7858
:100A6C008DF817303049049A13465B0013440B443D
:100A7C0001331B78002B0ED02C4B2D4A4FF48041A8
:100A8C00184656F069FE0390039B002B03D1284AAD
:100A9C009DF8073013702449049A13465B001344E5
:100AAC000B4402331978234A049B13440A461A70E8
:100ABC0028E01E4B184656F087FE1E4A049B134432
:100ACC0019781948049A13465B0013440344023303
:100ADC001B78994215D11449049A13465B001344B0
:100AEC000B4402331B788DF817300AE00E49049A38
:100AFC0013465B0013440B4401331B788DF81730FD
:100B0C0000E000BF9DF81730002B09D00A4B1B6882
:100B1C00002B05D0084B1B689DF8172010469847F2
:100B2C0000BF07B05DF804FB140D0020200D002061
:100B3C00400D0020440D0020100D002000B583B0A6
:100B4C000190019B1B7802211846FFF761FF00BF43
:100B5C0003B05DF804FB000000B583B00C4B1B78B0
:100B6C00002B0FD00023019308E0019B022B02D035
:100B7C000198FFF789FE019B01330193019B032B25
:100B8C00F3D901E0FFF79AFE00BF03B05DF804FB58
:100B9C00CC0C00202DE9D04F92B003468DF83F309D
:100BAC000023119300231093CC4B1B78002B04D003
:100BBC00CA4A00231370FFF7CFFF9DF83F30172B65
:100BCC0000F23F8201A252F823F000BF390C000062
:100BDC00510C0000510C0000ED0C0000890D0000C0
:100BEC00050E0000990E0000B90E0000C90E0000A1
:100BFC00F50E0000130F0000310F00004F0F000026
:100C0C005D0F00005D0F00005D0F00005D0F000028
:100C1C005D0F0000F10F0000FF0F0000131000002B
:100C2C00271000004110000041100000FFF794FF56
:100C3C00AB4B184656F0C8FD1190AA4A9DF83F30B0
:100C4C001370FFE10020FFF7D7FD0346002B0DD0FA
:100C5C000020FFF719FE9DF83F30022B02D14FF414
:100C6C00E16301E04FF47A6310930BE00020FFF78F
:100C7C00F1FD9DF83F30022B01D1C82301E04FF468
:100C8C00C8731093974A9DF83F301370944C109B87
:100C9C000022009301924FF000024FF00003DDE9B7
:100CAC0000673946CB03314643EA51433146CA0308
:100CBC0012F57A71029143F1000303934FF4FA6237
:100CCC004FF00003DDE902015BF01CFD02460B4610
:100CDC00134600221946204656F03EFD1190B1E114
:100CEC000020FFF789FD0346002B0DD00020FFF7F5
:100CFC00CBFD9DF83F30032B02D14FF4487301E03C
:100D0C004FF47A6310930BE00020FFF7A3FD9DF8DE
:100D1C003F30032B01D1C82301E04FF4C87310936B
:100D2C00704A9DF83F3013706D4C109B0022049359
:100D3C0005924FF000024FF00003DDE904673946DD
:100D4C00CB03314643EA51433146CA0312F57A715B
:100D5C00069143F1000307934FF4FA624FF000033E
:100D6C00DDE906015BF0CEFC02460B461346002281
:100D7C001946204656F0F0FC119063E10020FFF775
:100D8C003BFD0346002B06D00020FFF77DFD4FF402
:100D9C007A63109305E00020FFF75CFD4FF4C873F5
:100DAC001093504A9DF83F3013704D4C109B00220D
:100DBC009A4693464FF000024FF000034FEACB33B4
:100DCC0043EA5A434FEACA3212F57A71089143F159
:100DDC00000309934FF4FA624FF00003DDE90801B8
:100DEC005BF090FC02460B46134600221946204647
:100DFC0056F0B2FC119025E10020FFF7FDFC0346F4
:100E0C00002B0CD00020FFF73FFD9DF83F30052B49
:100E1C0001D1C82301E04FF47A6310930BE000205A
:100E2C00FFF718FD9DF83F30052B01D1C82301E0D9
:100E3C004FF4C87310932B4A9DF83F301370284C15
:100E4C00109B0022984691464FF000024FF0000391
:100E5C004FEAC93343EA58434FEAC83212F57A7164
:100E6C000A9143F100030B934FF4FA624FF0000325
:100E7C00DDE90A015BF046FC02460B4613460022F4
:100E8C001946204656F068FC1190DBE00020FFF775
:100E9C003BFD144A9DF83F301370114B002240F279
:100EAC006661184656F058FC1190CBE00020FFF715
:100EBC00D1FC0C4A9DF83F301370C3E0074B012264
:100ECC001A700120FFF720FD054B002240F26661ED
:100EDC00184656F041FC1190B4E000BFC60C00203F
:100EEC00D00C0020C50C0020594B01221A70012097
:100EFC00FFF70AFD574B00224FF40051184656F0ED
:100F0C002BFC11909EE0524B01221A700120FFF72E
:100F1C00FBFC504B002240F26661184656F01CFC5C
:100F2C0011908FE04A4B01221A700120FFF7ECFC64
:100F3C00484B00224FF40051184656F00DFC11900E
:100F4C0080E0FFF7CEFC444A9DF83F30137079E007
:100F5C00424B184656F038FC11909DF83F30C3F1C7
:100F6C0011031093109B002B35D0119B002B32D109
:100F7C00109B012B28D9394C109B9BB21A46C823C5
:100F8C0002FB03F3DA171E4617464FF000024FF030
:100F9C000003FB0343EA5643F20312F57A710C91FA
:100FAC0043F100030D934FF4FA624FF00003DDE9B7
:100FBC000C015BF0A7FB02460B46134600221946B8
:100FCC00204656F0C9FB11900220FFF743FC244B3E
:100FDC0001221A7036E00220FFF756FC204B00224B
:100FEC001A702FE0FFF7B8FD1B4A9DF83F301370C5
:100FFC0028E0FFF7B1FD0020FFF72CFC164A9DF806
:10100C003F3013701EE0FFF7A7FD0120FFF722FC15
:10101C00114A9DF83F30137014E0FFF79DFD00203E
:10102C00FFF718FC0120FFF715FC0B4A9DF83F3029
:10103C00137007E0FFF755FC074A9DF83F3013701B
:10104C0000E000BF119B184612B0BDE8D08F00BF66
:10105C00C60C0020D00C0020C50C0020F00C002089
:10106C00CC0C002000B583B00190074B1B6803F03B
:10107C000103002B04D0054B1B781846FFF78AFDA3
:10108C0000BF03B05DF804FBC80C0020C50C0020A9
:10109C0000B583B001900220FFF736FC00BF03B00F
:1010AC005DF804FB00B585B003468DF807300023CE
:1010BC000393084B1B6803F00103002B05D09DF82C
:1010CC0007301846FFF766FD0390039B184605B0E2
:1010DC005DF804FBC80C002000B585B001900091B0
:1010EC00002303932A4A019B13602A4A009B136036
:1010FC00019B03F00203002B2AD00023029308E08B
:10110C0001220121029800F055F80390029B013353
:10111C000293029B032B02D8039B002BF0D0039B62
:10112C00002B06D140F2333204211B4855F064FEEB
:10113C000390039B002B02D155F0E6FE0390039B1A
:10114C00002B05D1154A0021154856F0D1FA039011
:10115C00019B03F00103002B14D00120FFF742FC8C
:10116C00039B002B05D10F4A00210F4856F0C0FA03
:10117C000390039B002B05D10C4A01210C4856F01F
:10118C00B7FA0390039B184605B05DF804FB00BF4B
:10119C00C80C0020100D002064D10500490B000084
:1011AC0060D105007110000058D105009D100000A1
:1011BC005CD1050084B001900B468DF803301346CA
:1011CC008DF8023000230393019B032B3CD89DF830
:1011DC000230012B0BD19DF80330012B04D1019B64
:1011EC00DBB20E33DBB200E000238DF802309DF849
:1011FC000330022B0FD0022B23DC002B16D0012B3B
:10120C001FD11449019A13465B0013440B449DF8FB
:10121C0002201A701AE00F49019A13465B0013441E
:10122C000B4401339DF802201A700FE00949019A12
:10123C0013465B0013440B4402339DF802201A70D2
:10124C0004E00723039301E007230393039B184651
:10125C0004B07047140D0020BFF34F8F00BF064B36
:10126C00DB6803F4E0620449044B1343CB60BFF327
:10127C004F8F00BF00BFFDE700ED00E00400FA0552
:10128C0082B0124B1B680193114B1B680093019B9E
:10129C00082B17D1009B032B12D801A252F823F074
:1012AC00BD120000C1120000C5120000C9120000DE
:1012BC00012308E0012306E0012304E0012302E0FE
:1012CC00012300E00023184602B0704730010010E3
:1012DC003401001082B0124B1B680193114B1B6838
:1012EC000093019B082B17D1009B032B12D801A252
:1012FC0052F823F01113000015130000191300000D
:10130C001D130000012308E0012306E0012304E083
:10131C00012302E0012300E00023184602B07047CD
:10132C00300100103401001082B0124B1B68019385
:10133C00114B1B680093019B082B17D1009B032BAF
:10134C0012D801A252F823F06513000069130000B3
:10135C006D13000071130000012308E0002306E068
:10136C00002304E0002302E0002300E000231846E1
:10137C0002B07047300100103401001082B0124BE3
:10138C001B680193114B1B680093019B082B17D111
:10139C00009B032B12D801A252F823F0B9130000C2
:1013AC00BD130000C1130000C5130000012308E0A9
:1013BC00002306E0002304E0002302E0002300E009
:1013CC000023184602B070473001001034010010A1
:1013DC0082B0124B1B680193114B1B680093019B4D
:1013EC00082B17D1009B032B12D801A252F823F023
:1013FC000D14000011140000151400001914000045
:10140C00012308E0002306E0002304E0002302E0AF
:10141C00002300E00023184602B070473001001092
:10142C003401001082B0124B1B680193114B1B68E6
:10143C000093019B082B17D1009B032B12D801A200
:10144C0052F823F0611400006514000069140000C8
:10145C006D140000012308E0002306E0002304E0E3
:10146C00002302E0002300E00023184602B070477E
:10147C00300100103401001082B0124B1B68019334
:10148C00114B1B680093019B082B17D1009B032B5E
:10149C0012D801A252F823F0B5140000B9140000C0
:1014AC00BD140000C1140000012308E0012306E074
:1014BC00012304E0012302E0012300E0002318468D
:1014CC0002B070473001001034010010024B034A87
:1014DC001A6000BF704700BF600000200090D0036E
:1014EC0008B5FFF7CDFE0346002B0ED04FF080431E
:1014FC000022C3F80C214FF080430022C3F81021C6
:10150C004FF080430022C3F83825FFF7E3FE034673
:10151C00002B76D04FF080537D4AD3F80434C2F8B8
:10152C0020354FF080537A4AD3F80834C2F824356A
:10153C004FF08053764AD3F80C34C2F828354FF06C
:10154C008053734AD3F81034C2F82C354FF08053C3
:10155C006F4AD3F81434C2F830354FF080536C4ACC
:10156C00D3F81834C2F834354FF08053684AD3F8A6
:10157C001C34C2F840354FF08053654AD3F8203400
:10158C00C2F844354FF08053614AD3F82434C2F882
:10159C0048354FF080535E4AD3F82834C2F84C35A6
:1015AC004FF080535A4AD3F82C34C2F850354FF0D0
:1015BC008053574AD3F83034C2F854354FF0805327
:1015CC00534AD3F83434C2F860354FF08053504A44
:1015DC00D3F83834C2F864354FF080534C4AD3F802
:1015EC003C34C2F868354FF08053494AD3F8403444
:1015FC00C2F86C354FF08053454AD3F84434C2F8E6
:10160C007035FFF791FE0346002B02D0414B424A46
:10161C001A60FFF7B3FE0346002B03D03F4BFB22AF
:10162C00C3F81825FFF7D4FE0346002B0AD03C4B19
:10163C001B6823F00F023B4B1B6803F00F03384968
:10164C0013430B60FFF7EEFE0346002B03D0364B23
:10165C004FF400721A60FFF70FFF0346002B0DD0FA
:10166C004FF08043D3F8003403F00103002B05D076
:10167C004FF080436FF00102C3F800242B4BD3F8DA
:10168C0088302A4A43F47003C2F88830BFF34F8F76
:10169C0000BFBFF36F8F00BF4FF01023D3F80032A1
:1016AC00002B05DB4FF01023D3F80432002B2BDA80
:1016BC001F4B0122C3F8042500BF1D4BD3F8003487
:1016CC00002BFAD04FF010231222C3F8002200BFD7
:1016DC00174BD3F80034002BFAD04FF01023122202
:1016EC00C3F8042200BF124BD3F80034002BFAD0FD
:1016FC000F4B0022C3F8042500BF0D4BD3F8003468
:10170C00002BFAD0FFF7A8FDFFF7E0FE00BF08BDE5
:10171C0000C000408C5600404881030000F000409F
:10172C00E40E0040580200104096024000ED00E02C
:10173C0000E001400048704764370020FEE7FEE7F8
:10174C0082B00190019B184602B0704700B585B07D
:10175C00039002910192039B9B6B002B01D1FFF72D
:10176C00EDFF039B9B6B1C2103989847034618467F
:10177C0005B05DF804FB000010B5A0B00390029119
:10178C00029B1B69002B01D1FFF7D8FF029B1B6941
:10179C001F93344B1B681A460299039826F047FB9B
:1017AC001E90314B1B681A460299039826F04EFB8B
:1017BC001D901E9B1B7A012B02D0092B21D043E0DC
:1017CC0005AB1E99184626F080FB1E9800F016F902
:1017DC0004460BAB1D99184626F077FB1D9800F0BC
:1017EC001BF903460BAA05A8214600F020FB0BAB06
:1017FC001846FFF7A5FF05AB1846FFF7A1FF00231E
:10180C002DE011AB1E99184626F05FFB17AB1D9906
:10181C00184626F05AFB1E9800F00CF904461D9849
:10182C0000F016F9034617AA11A9009323461F9836
:10183C0000F08AFA17AB1846FFF782FF11AB184677
:10184C00FFF77EFF00230AE01E9B1B7A184608F068
:10185C0021FC03461946054851F0F0F901231846BE
:10186C0020B010BDB0D10500B4D1050084D1050065
:10187C0000B585B0039002910192039B9B6B002BEA
:10188C0001D1FFF75BFF039B9B6B022103989847E9
:10189C000346184605B05DF804FB000070B5A0B017
:1018AC0003900291029B1B69002B01D1FFF746FFAD
:1018BC00029B1B691F93384B1B681A4602990398AD
:1018CC0026F0B5FA1E90354B1B681A460299039800
:1018DC0026F0BCFA1D901E9B1B7A012B02D0092B03
:1018EC0021D04BE005AB1E99184626F0EEFA1E9857
:1018FC0000F084F804460BAB1D99184626F0E5FA67
:10190C001D9800F089F803460BAA05A8214600F0A3
:10191C00C3FA0BAB1846FFF713FF05AB1846FFF7DE
:10192C000FFF002335E01F9B93F901401F9B93F998
:10193C00005011AB1E99184626F0C7FA1E9800F0FD
:10194C0079F8064617AB1D99184626F0BEFA1D9875
:10195C0000F07EF8034611AA019317AB00933346AF
:10196C002946204600F0DCFA17AB1846FFF7E8FED4
:10197C0011AB1846FFF7E4FE00230AE01E9B1B7A0E
:10198C00184608F087FB03461946054851F056F9EE
:10199C000123184620B070BDB0D10500B4D10500AC
:1019AC0084D1050000B585B0039003980023009303
:1019BC00044B054A054926F0E7F900BF039805B02A
:1019CC005DF804FB85170000B51F000059170000D7
:1019DC0000B585B00390039800230093044B054A8F
:1019EC00054926F0D1F900BF039805B05DF804FB5A
:1019FC00A9180000792000007D18000000B583B004
:101A0C000190019B002B01D1FFF798FE019B1B68F5
:101A1C00184603B05DF804FB00B583B00190019B40
:101A2C00002B01D1FFF78AFE019B1B68184603B0FF
:101A3C005DF804FB00B583B00190019B002B01D134
:101A4C00FFF77CFE019B1B68184603B05DF804FB96
:101A5C0000B583B00190019B002B01D1FFF76EFE06
:101A6C00019B1B68184603B05DF804FB2DE9F00FD1
:101A7C008EB00390029103980299884207D14FF0DF
:101A8C00004000BF0399814201D1012100E00021F7
:101A9C008DF837100399C8170E460746304639465D
:101AAC00CDE90A010299C8178A468346CDE908ABED
:101ABC000B99089801FB00F009990A9E06FB01F1AD
:101ACC0001440A9806460898A6FB002319440B46C5
:101ADC00CDE90623CDE90623DDE90623002B02DB45
:101AEC004FF0804300E0194B0593059BDA171C4619
:101AFC001546DDE9062314EB020845EB03094246C3
:101B0C004B46002B08DA6FF000415118009143F15D
:101B1C0000030193DDE900234FF000004FF00001BA
:101B2C00D00F40EA4300D91702460B4613460493E4
:101B3C009DF83730002B03D06FF0004300BF00E05E
:101B4C00049B18460EB0BDE8F00F7047010000C0B2
:101B5C0082B00190019B00221A60019B184602B0D2
:101B6C00704700B585B0039002910192039B029AD5
:101B7C001A60019A0299039800F033F8039B1846F7
:101B8C0005B05DF804FB82B00190019B1B68184600
:101B9C0002B0704700B583B001900091009B002B00
:101BAC0001DAFFF7CBFD019B1B68009A9A4201DB1F
:101BBC00FFF7C4FD019A009B9B0013445B68184619
:101BCC0003B05DF804FB82B00190019B043318460E
:101BDC0002B0704782B00190019B0433184602B0EA
:101BEC00704700B587B0039002910192039B029A53
:101BFC001A600398FFF7E7FF0590029B9B001A46BB
:101C0C00019905985AF016FF00BF07B05DF804FB68
:101C1C0000B587B00190012305930198FFF7DAFF17
:101C2C000390002304930BE0049B9B00039A134442
:101C3C001A68059B02FB03F30593049B0133049381
:101C4C00019B1B68049A9A42EEDB059B184607B071
:101C5C005DF804FB10B584B0019000910198FFF77A
:101C6C0092FF04460098FFF78EFF03469C4201D07A
:101C7C00FFF764FD0198FFF786FF029000230393A2
:101C8C0010E003990198FFF785FF0446039900982B
:101C9C00FFF780FF03469C4201D0FFF74FFD039BEB
:101CAC0001330393039A029B9A42EADB0198FFF7F4
:101CBC00AFFF0346184604B010BD00B587B00390C3
:101CCC0002910192019B23EAE3730593019B002B84
:101CDC0002DC019B5B4200E000230493039A059B0A
:101CEC0002FA03F302991846FFF7C0FE0346049963
:101CFC00184600F00DFA0346184607B05DF804FBD1
:101D0C0000B587B001900091009B002B03D1019886
:101D1C00FFF71EFF0DE0009B9B680593059B1B685E
:101D2C000493059B04330393039A04990198FFF7DA
:101D3C0018FF019807B05DF804FB82B00190019B7D
:101D4C00DB68184602B0704770B594B003900291EE
:101D5C000192009301990298FFF77CFF12900023E7
:101D6C0013935CE0139B009A134493F90030119386
:101D7C00039B1C69039BDB68119AD01A039B59695E
:101D8C00039B9B691A46FFF798FF0346234406936F
:101D9C00039B04330B930B9B0A9306AB09938DF8AF
:101DAC0014500A9B0893099B0793089B1A68079B7E
:101DBC001B689A42B4BF01230023DBB2002B01D075
:101DCC00099B01E00A9B00BF00BF1B680693039BA5
:101DDC0008331093109B0F9306AB0E938DF8106085
:101DEC000E9B0D930F9B0C930D9B1A680C9B1B6801
:101DFC009A42B4BF01230023DBB2002B01D00E9B0F
:101E0C0001E00F9B00BF00BF1B6806930699139B54
:101E1C00189A13444AB21A70139B01331393139AF2
:101E2C00129B9A429EDB00BF00BF14B070BD00B580
:101E3C008BB0039002910192009301990398FFF7E4
:101E4C0009FF0890002309931CE0099B9B00029A50
:101E5C0013441B6807934FF000030693DDED077ADC
:101E6C00F5EEC07AF1EE10FA01D5069B00E0079B67
:101E7C000593099B9B00009A1344059A1A60099BD1
:101E8C0001330993099A089B9A42DEDB00BF00BF1D
:101E9C000BB05DF804FB000000B58BB00390029111
:101EAC000192009301990398FFF7D4FE0890002348
:101EBC00099329E0099B9B00029A13441B68079322
:101ECC00164B06934FF000030593DDED077AB1EE48
:101EDC00087AF4EEC77AF1EE10FA01DD069B09E000
:101EEC00DDED077AF5EEC07AF1EE10FA01D5059B1F
:101EFC0000E0079B0493099B9B00009A1344049AEF
:101F0C001A60099B01330993099A089B9A42D1DB09
:101F1C0000BF00BF0BB05DF804FB00BF0000C04069
:101F2C0000B589B00292019303468DF80F300B4631
:101F3C008DF80E300A990298FFF78CFE069000235C
:101F4C00079328E0079B019A13441B788DF81730F0
:101F5C009DF90E309DF917209A4204DD0DF10E0308
:101F6C0093F900300CE09DF90F309DF917209A423F
:101F7C0004DA0DF10F0393F9003001E09DF91730ED
:101F8C008DF81630079B0B9A13449DF816201A7087
:101F9C00079B01330793079A069B9A42D2DB00BF3B
:101FAC0000BF09B05DF804FB10B588B00390029136
:101FBC00029B1B69002B01D1FFF7C0FB029B1B6925
:101FCC0007930398FFF7B9FE0690069B1B6818331E
:101FDC001B6800220299069898470590059B002BD8
:101FEC000AD1039B5C691D4B00937B231C4A1D4942
:101FFC000398A04701232EE0069B1B681C331B682B
:10200C0000220299069898470490049B002B0AD151
:10201C00039B5C69144B00937E23114A114903986E
:10202C00A047012317E0059B1B78092B04D1079AC5
:10203C000499059800F0DAF8069B1B6824331B689A
:10204C00059906989847069B1B6824331B680499CE
:10205C00069898470023184608B010BD20D20500FA
:10206C00B8D1050008D2050034D2050010B588B0EF
:10207C0003900291029B1B69002B01D1FFF75EFBC1
:10208C00029B1B6907930398FFF757FE0690069B6C
:10209C001B6818331B680022029906989847059014
:1020AC00059B002B0AD1039B5C69164B0093912373
:1020BC00154A16490398A047012320E0059B1B787D
:1020CC00092B14D1059BD3ED037A059B1B6918468C
:1020DC00F0EE670AB1EE080A00F044F903461A461E
:1020EC00079B1A70059B1B695AB2079B5A70069B7B
:1020FC001B6824331B6805990698984700231846DB
:10210C0008B010BD20D20500B8D1050008D20500DA
:10211C0070B588B001900091009B002B05DA4FF44C
:10212C00B3722F492F48FFF70AFB009B1F2B05DDCD
:10213C0040F267122A492C48FFF701FB4FF00102CD
:10214C004FF000030099A1F12006C1F1200003FA21
:10215C0001F502FA06F6354322FA00F0054302FABD
:10216C0001F42346013B184600F062F90790002069
:10217C0000F05EF90690012000F05AF905900799DD
:10218C00019800F05BF904900121079800F05FF9C9
:10219C0004460699019800F064F90346059918461F
:1021AC0000F04CF903461946204600F06DF90390F7
:1021BC000099019800F04BF904460399049800F03B
:1021CC006CF903460599184600F038F90346194690
:1021DC00204600F059F90346184608B070BD00BF00
:1021EC0048D20500B0D20500C0D2050070B5A2B02F
:1021FC000390029101924FF0000321934FF0FF43A3
:10220C002093039B93ED037A029BD3ED037AC7EEE5
:10221C00276A16EE900A59F093FC02460B46CDE95C
:10222C001E230CAB03991846FFF76AFD06AB029907
:10223C001846FFF765FD019B03F11402019B18334F
:10224C00194610469DED1E0B37F0FCF96FF07F031D
:10225C0000BF1293029B1C69029BD3ED037A9DED88
:10226C00217AC7EE276AB0EE660A59F0B3FEF0EE9B
:10227C00407AFDEEE77A17EE903A2344139312ABB3
:10228C001D9313AB1C938DF810601D9B1B931C9B13
:10229C001A931B9B1A681A9B1B689A42B4BF0123A2
:1022AC000023DBB2002B01D01C9B01E01D9B00BF67
:1022BC0000BF1A68019B5A609FED297A00BFDDEDC3
:1022CC00207AF4EE477AF1EE10FA02D17F2300BFA8
:1022DC0032E07F2300BF1493029B1C69029BD3ED59
:1022EC00037A9DED207AC7EE276AB0EE660A59F0A4
:1022FC0071FEF0EE407AFDEEE77A17EE903A234449
:10230C00159314AB199315AB18938DF81450189BA7
:10231C001793199B1693179B1A68169B1B689A4266
:10232C00B4BF01230023DBB2002B01D0189B01E0CA
:10233C00199B00BF00BF1B68019A9360039B1A692D
:10234C00019BDA60029B1A69019B1A6106AB184665
:10235C00FFF7F6F90CAB1846FFF7F2F922B070BD97
:10236C000000807F30B593B08DED030ACDED020AED
:10237C000190DDED036A9DED027AC6EE877ACDED14
:10238C00097A9DED090A59F025FEB0EE407A00BF9E
:10239C00019B07EE903AF8EEE77A77EE277AFDEE9E
:1023AC00E77A17EE903A06936FF07F0300BF07931E
:1023BC0007AB0D9306AB0C938DF814500D9B0B9340
:1023CC000C9B0A930B9B1A680A9B1B689A42B4BF1E
:1023DC0001230023DBB2002B01D00C9B01E00D9BF1
:1023EC0000BF00BF1B6806937F2300BF089308AB98
:1023FC00119306AB10938DF81040109B0F93119B0B
:10240C000E930F9B1A680E9B1B689A42B4BF012354
:10241C000023DBB2002B01D0109B01E0119B00BF0D
:10242C0000BF1B680693069B5BB2184613B030BD09
:10243C0082B00190019B184602B0704782B00190A7
:10244C000091019A009B1340184602B0704782B06D
:10245C0001900091019A009B42FA03F3184602B0D6
:10246C00704700B583B001900091019A009B9A428D
:10247C00B4BF01230023DBB2184600F021F8034659
:10248C00184603B05DF804FB82B001900091019AEC
:10249C00009B1344184602B0704700B583B00190FE
:1024AC000091019A009B9A42CCBF01230023DBB21E
:1024BC00184600F005F80346184603B05DF804FB17
:1024CC0000B583B00190019B002B04D0002000F0DC
:1024DC0007F8034600E00023184603B05DF804FB40
:1024EC0082B00190019BDB43184602B0704700009C
:1024FC0030B492B003460A46ADF806301346ADF838
:10250C000430BDF906301193BDF904301093119AC3
:10251C00109B1344049347F6FF7305931E4B0693CD
:10252C0006AB0A9304AB09938DF80C500A9B0893E5
:10253C00099B0793089B1A68079B1B689A42B4BFB8
:10254C0001230023DBB2002B01D0099B01E00A9B85
:10255C0000BF00BF0F9305AB0E930F9B0D938DF82F
:10256C0008400D9B0C930E9B0B930C9B1A680B9BBA
:10257C001B689A42B4BF01230023DBB2002B01D0AD
:10258C000D9B01E00E9B00BF00BF1B681BB21846E1
:10259C0012B030BC704700BF0080FFFF00B587B0A1
:1025AC00039002910192039B029A1A6000230593F7
:1025BC0007E0019A0599039800F02EF8059B01336A
:1025CC000593059A029B9A42F3DB039B184607B0CE
:1025DC005DF804FB10B582B001900091019B1A6864
:1025EC00009B1B689A4213D10198FFF7F3FA04463B
:1025FC000098FFF7EFFA0146019B1B689B001A46F7
:10260C0020465AF0ACFA0346002B01D1012300E01E
:10261C000023184602B010BD00B585B0039002919E
:10262C000192029B002B01DAFFF788F8039B1B68D1
:10263C00029A9A4201DBFFF781F8039A029B9B00F6
:10264C001344019A5A6000BF05B05DF804FB00B555
:10265C0085B00390029101920123019A029903988B
:10266C0000F004F8039805B05DF804FB30B587B0B2
:10267C000390029101920093039B029A1A600198B5
:10268C00FFF781FA0246029B934201DAFFF756F8F4
:10269C000198FFF778FA0246029B9B1A04930023D9
:1026AC00059307E0009A05990398FFF7B5FF059B82
:1026BC0001330593059A049B9A42F3DB0398FFF7C9
:1026CC0082FA0246049B9B00D4180198FFF782FA09
:1026DC0005460198FFF757FA03469B001A46294610
:1026EC0020465AF0A7F9039B184607B030BD00B539
:1026FC0087B003900291019200930398FFF743FA7D
:10270C000346042B01D0FFF719F80398FFF762FA80
:10271C000590059B1B68002B02D1029B002B09D056
:10272C00029B002B04DB059B1B68029A9A4201DB7F
:10273C00FFF704F8059B04331B68002B02D1019BA7
:10274C00002B0AD0019B002B05DB059B04331B6877
:10275C00019A9A4201DBFEF7F1FF059B08331B68D7
:10276C00002B02D1009B002B0AD0009B002B05DB19
:10277C00059B08331B68009A9A4201DBFEF7DEFFCB
:10278C00059B0C331B68002B02D1089B002B0AD035
:10279C00089B002B05DB059B0C331B68089A9A429F
:1027AC0001DBFEF7CBFF059B04331B68029A03FB8E
:1027BC0002F2019B1344059A0832126803FB02F2E1
:1027CC00009B1344059A0C32126803FB02F2089B1F
:1027DC001344184607B05DF804FB00B589B00390AC
:1027EC00029101920398FFF713FA07900298FFF7F2
:1027FC000FFA06900198FFF70BFA0590079A069BC3
:10280C009A4201D0FEF79AFF069A059B9A4201D094
:10281C00FEF794FF079B184609B05DF804FB00B562
:10282C0085B003900291019202990398FFF71EF96B
:10283C000246019B5B4219461046FFF769FC0346B2
:10284C00184605B05DF804FB00B585B00390029105
:10285C0001920093029B002B04DB039B1B68029AE2
:10286C009A4201DBFEF76AFF019B002B04DB039B02
:10287C005B68019A9A4201DBFEF760FF009B002B1C
:10288C0004DB039B9B68009A9A4201DBFEF756FF20
:10289C00069B002B04DB039BDB68069A9A4201DB48
:1028AC00FEF74CFF039B1B69029A03FB02F2039B8E
:1028BC005B69019901FB03F31A44039B9B69009923
:1028CC0001FB03F31A44039BDB69069901FB03F339
:1028DC001344184605B05DF804FB00B589B00590AB
:1028EC00049103920293059BDA6A059B1B6B9A4237
:1028FC0001DDFEF723FF0B9A02990498FFF76DFF99
:10290C00079047F6FF730693059B5A68069B5B423C
:10291C009A4201DCFEF712FF059B9A68069B5B420C
:10292C009A4201DCFEF70AFF059B5B68069A9A4205
:10293C0001DCFEF703FF059B9B68069A9A4201DCBB
:10294C00FEF7FCFE0C9B00930A9B039A05990798D3
:10295C0000F047FF00BF09B05DF804FB30B59FB035
:10296C0007900691059204939DF8943083F001032F
:10297C00DBB2002B0CD0249B0293239B0193229B54
:10298C000093049B059A06990798FFF7A6FFC4E0ED
:10299C00079BDA6A079B1B6B9A4201DDFEF7CEFEA2
:1029AC00079B1B6A1C93239A04990698FFF715FF43
:1029BC001B90079BDB6A1BB2ADF83630079B1B6B79
:1029CC001BB2ADF834301C9B002B05D0079B9B6AC7
:1029DC00002B01D0FEF7B2FE1C9B002B01DDFEF795
:1029EC00ADFE079B9B6A002B01DDFEF7A7FE1C9B2F
:1029FC00002B01D1059B00E0229B1A931C9B002B02
:102A0C0001D1229B00E0059B19931C9B002B03D149
:102A1C00079B9B6A5B4201E01C9B5B421893002363
:102A2C001D9376E01D9B5B001A9A1344B3F900309A
:102A3C00184600F099FF0346ADF830301D9B5B0043
:102A4C00199A1344B3F900301899184600F0A0FFF6
:102A5C000346184600F088FF0346ADF82C30BDF84D
:102A6C003010BDF82C0001F027F80346ADF82830E3
:102A7C000AAB184601F040F80346B3F90030ADF844
:102A8C0026300DF1360311930DF1260310938DF8BA
:102A9C002440119B0F93109B0E930F9BB3F90020B6
:102AAC000E9BB3F900309A42B4BF01230023DBB272
:102ABC00002B01D0109B01E0119B00BF00BF1693AF
:102ACC000DAB1593169B14938DF82050149B1393F8
:102ADC00159B1293139BB3F90020129BB3F9003092
:102AEC009A42B4BF01230023DBB2002B01D0149B0C
:102AFC0001E0159B00BF00BF1B88ADF85E301D9B2D
:102B0C005B00249A1344BDF85E201A801D9B013390
:102B1C001D931D9A1B9B9A4284DB1FB030BD00B5E0
:102B2C0083B00190019BDA6A019B1B6B9A4201DD19
:102B3C00FEF704FE019B5B685B426FF07F0200BFF7
:102B4C00934201DAFEF7FAFD019B9B685B426FF042
:102B5C007F0200BF934201DAFEF7F0FD019B5B6838
:102B6C005B427F2200BF934201DDFEF7E7FD019B34
:102B7C009B685B427F2200BF934201DDFEF7DEFDC6
:102B8C0000BF03B05DF804FB10B586B00390029152
:102B9C00019200930298FFF7C2FF0023059314E003
:102BAC00059B019A134493F90000059B009A13446A
:102BBC0093F90010059B089AD4180A9B029A98471F
:102BCC0003462370059B01330593059A039B9A4298
:102BDC00E6DB00BF00BF06B010BD70B5A0B005901D
:102BEC000491039202930CAB14AA0299049800F07E
:102BFC0089FF06AB259A04211846FFF728FD002310
:102C0C001F936DE000231E9359E000231D9345E0B4
:102C1C0000231C9331E014A81C9B00931D9B1E9A4F
:102C2C001F99FFF711FE03461A46039B134493F9B1
:102C3C0000500CA81C9B00931D9B1E9A1F99FFF71C
:102C4C0003FE03461A46249B134493F9006006A81E
:102C5C001C9B00931D9B1E9A1F99FFF748FD034672
:102C6C001A46269B9C18289B059A3146284698475D
:102C7C00034623701C9B01331C9306AB032118469F
:102C8C00FEF788FF02461C9B9342B4BF012300232E
:102C9C00DBB2002BBFD11D9B01331D9306AB022170
:102CAC001846FEF777FF02461D9B9342B4BF0123E3
:102CBC000023DBB2002BABD11E9B01331E9306AB62
:102CCC0001211846FEF766FF02461E9B9342B4BFD5
:102CDC0001230023DBB2002B97D11F9B01331F93E1
:102CEC0006AB00211846FEF755FF02461F9B934288
:102CFC00B4BF01230023DBB2002B83D106AB1846F3
:102D0C00FEF71EFD20B070BD30B599B003460092A1
:102D1C008DF807300B468DF80630009B5A689DF9EC
:102D2C00073013441793009B9A689DF9063013449F
:102D3C001693009B9B69179A02FA03F31593009B59
:102D4C009B69169A02FA03F31493009BD969009BB2
:102D5C001B6A1A461598FFF762FD1390009B596A7F
:102D6C00009B9B6A1A461498FFF759FD1290139A10
:102D7C00129B13441193009B1969009B5B691A46C3
:102D8C001198FFF74CFD0246009BDB68134404933B
:102D9C00009B03F13002009B2C330993099B089391
:102DAC0004AB07938DF80C50089B0693079B059377
:102DBC00069B1968059B1B689942B4BF012300232D
:102DCC00DBB2002B01D0079B01E0089B00BF00BFCA
:102DDC000F920E930F9B0D930E9B0C938DF8084046
:102DEC000C9B0B930D9B0A930B9B1A680A9B1B68FD
:102DFC009A42B4BF01230023DBB2002B01D00C9B01
:102E0C0001E00D9B00BF00BF1B681093109B5BB2D1
:102E1C00184619B030BD000000B589B00790069176
:102E2C0005920493074B0293074B01930A9B009363
:102E3C00049B059A06990798FFF7A6FE00BF09B0F8
:102E4C005DF804FB152D00002B2B000000B589B09C
:102E5C0005900491039202930598FFF760FE0B9A7C
:102E6C0002990498FFF7B9FC07900C9B00930A9BFE
:102E7C00039A05990798FFF7CFFF00BF09B05DF8DB
:102E8C0004FB000000B58BB00990089107920693E3
:102E9C00094B0493094B03930E9B02930D9B0193D7
:102EAC000C9B0093069B079A08990998FFF795FECF
:102EBC0000BF0BB05DF804FB152D00002B2B0000A0
:102ECC0010B5A4B00390029101920398FEF75BFE3B
:102EDC00034618930298FEF756FE0346199318AB57
:102EEC001D9319AB1C938DF814401D9B1B931C9BBD
:102EFC001A931B9B1A681A9B1B689A42B4BF012336
:102F0C000023DBB2002B01D01C9B01E01D9B00BFFA
:102F1C0000BF1B682193019B04221A7012AB012283
:102F2C0021991846FFF73AFB0CAB039A21991846E6
:102F3C00FFF78DFB06AB029A21991846FFF787FB2A
:102F4C0006AA0CAB11461846FFF744FB0346002BB0
:102F5C0004D0019B01221A70002424E1219B013B27
:102F6C0023933DE00CAB23991846FEF713FE044661
:102F7C0006AB23991846FEF70DFE03469C420CBF88
:102F8C0001230023DBB2002B26D10CAB239918466E
:102F9C00FEF700FE0346012B0CBF01230023DBB21E
:102FAC00002B03D0019B02221A701CE006AB239964
:102FBC001846FEF7EFFD0346012B0CBF012300233F
:102FCC00DBB2002B03D0019B03221A700BE0019B98
:102FDC0004221A700124E6E000BF239B013B2393DB
:102FEC00239B002BBEDA019B1B78022B05D0019B87
:102FFC001B78032B01D0FEF7A1FB019B1B78032B45
:10300C000CBF012300238DF883309DF88330002BF7
:10301C0001D006AB00E00CAB1F939DF88330002B66
:10302C0001D00CAB00E006AB1E93219B013B22931D
:10303C00019B01221A65019B01225A65019B012209
:10304C009A65019B0122DA65019B01221A660DE04B
:10305C0022991E98FEF79EFD0246019B1B6E03FBF8
:10306C0002F2019B1A66229B013B2293229B002BAE
:10307C000DDB22991F98FEF78DFD044622991E98B0
:10308C00FEF788FD03469C4201D1012300E000239A
:10309C00002BDDD10DE022991E98FEF77BFD024638
:1030AC00019BDB6D03FB02F2019BDA65229B013B6A
:1030BC002293229B002B08DB22991F98FEF76AFDB6
:1030CC000346012B01D1012300E00023002BE2D1A8
:1030DC000DE022991F98FEF75DFD0246019B9B6D4A
:1030EC0003FB02F2019B9A65229B013B2293229BDC
:1030FC00002B0DDB22991F98FEF74CFD04462299FC
:10310C001E98FEF747FD03469C4201D1012300E0C7
:10311C000023002BDDD10DE022991F98FEF73AFD1C
:10312C000246019B5B6D03FB02F2019B5A65229BDD
:10313C00013B2293229B002B08DB22991E98FEF761
:10314C0029FD0346012B01D1012300E00023002BB4
:10315C00E2D10DE022991E98FEF71CFD0246019B60
:10316C001B6D03FB02F2019B1A65229B013B229310
:10317C00229B002B0DDB22991F98FEF70BFD0446BA
:10318C0022991E98FEF706FD03469C4201D10123AD
:10319C0000E00023002BDDD1229B002B02DB019BE6
:1031AC0004221A70012406AB1846FEF7C9FA0CABC0
:1031BC001846FEF7C5FA12AB1846FEF7C1FA2346BD
:1031CC00184624B010BD30B5C7B0079046A8A0F57E
:1031DC008070016046A9A1F582710A6046AAA2F529
:1031EC008472136046ABA3F584731B68D3ED0D7A20
:1031FC0046ABA3F584731B6893ED0E7A08AB1846A7
:10320C00F0EE470AB0EE670A00F0E5FC46ABA3F51A
:10321C0084731B681B78002B32D022AB4A9918465A
:10322C0024F053FE4A98FEF7E9FB054628AB4B9970
:10323C00184624F04AFE4B98FEF7E0FB04462EABF2
:10324C004C99184624F041FE4C98FEF7E5FB0346DA
:10325C0028AA22A908A802932EAB01930094134626
:10326C002A4600F0C7FC2EAB1846FEF769FA28ABCD
:10327C001846FEF765FA22AB1846FEF761FA31E004
:10328C0034AB4A99184624F020FE4A98FEF7B6FB58
:10329C0005463AAB4B99184624F017FE4B98FEF7AF
:1032AC00ADFB044640AB4C99184624F00EFE4C98EE
:1032BC00FEF7B2FB03463AAA34A908A8029340AB26
:1032CC000193009413462A4600F041FD40AB18468A
:1032DC00FEF736FA3AAB1846FEF732FA34AB18461C
:1032EC00FEF72EFA00BF47B030BD000070B5F8B045
:1032FC0078ACA4F5E274206078A8A0F5E4700160C5
:10330C0078A9A1F5E6710A6078AAA2F5E8721360B3
:10331C0078ABA3F5E8731B685A6A78ABA3F5E07336
:10332C009A6178ABA3F5E8731B689A6A78ABA3F53E
:10333C00E0735A6078ABA3F5E8731B685A6978ABF5
:10334C00A3F5E073DA6178ABA3F5E8731B685A68F0
:10335C0078ABA3F5E0731A6278ABA3F5E8731B683E
:10336C00DA6A78ABA3F5E0739A6078ABA3F5E873EF
:10337C001B689A6978ABA3F5E0735A6278ABA3F536
:10338C00E8731B689A6878ABA3F5E0739A6278AB24
:10339C00A3F5E8731B681A6B78ABA3F5E073DA60DE
:1033AC0078ABA3F5E8731B68DA6978ABA3F5E07327
:1033BC001A6178ABA3F5E8731B681A6A78ABA3F5AE
:1033CC00E0735A6178ABA3F5E8731B68D86878ABE7
:1033DC00A3F5E8731B681B6908AA194600F0F9FCF1
:1033EC0078ABA3F5AA737C99184624F06EFD78ABE4
:1033FC00A3F59E737D99184624F067FD08AA29A9A8
:10340C0023AB1846FFF75CFD03468DF8DF3129AB83
:10341C001846FEF795F923AB1846FEF791F97E9BFB
:10342C001B7A072B70D0092B40F0DA809DF8DF3126
:10343C00002B36D078ABA3F592737C99184624F008
:10344C0044FD7C98FEF7F6FA054678ABA3F5867337
:10345C007D99184624F039FD7D98FEF7EBFA044669
:10346C003BAB7E99184624F030FD7E98FEF7F0FABF
:10347C00034635AA2FA908A802933BAB01930094ED
:10348C0013462A46FFF7FEFC3BAB1846FEF758F9ED
:10349C0035AB1846FEF754F92FAB1846FEF750F92A
:1034AC00ACE041AB7C99184624F00FFD7C98FEF7FC
:1034BC00C1FA054647AB7D99184624F006FD7D9868
:1034CC00FEF7B8FA04464DAB7E99184624F0FDFC85
:1034DC007E98FEF7BDFA034647AA41A908A80293B5
:1034EC004DAB0193009413462A46FFF7AFFC4DAB4E
:1034FC001846FEF725F947AB1846FEF721F941AB04
:10350C001846FEF71DF979E09DF8DF31002B32D01B
:10351C0053AB7C99184624F0D8FC7C9800F066FCE0
:10352C00054659AB7D99184624F0CFFC7D9800F0E8
:10353C005DFC04465FAB7E99184624F0C6FC7E9871
:10354C0000F062FC034659AA53A908A802935FAB8A
:10355C000193009413462A4600F064FC5FAB1846B6
:10356C00FEF7EEF859AB1846FEF7EAF853AB1846DF
:10357C00FEF7E6F842E065AB7C99184624F0A5FC12
:10358C007C9800F033FC05466BAB7D99184624F013
:10359C009CFC7D9800F02AFC044671AB7E99184681
:1035AC0024F093FC7E9800F02FFC03466BAA65A9CF
:1035BC0008A800260396029371AB0193009413465E
:1035CC002A46FFF7CBF971AB1846FEF7B9F86BAB8F
:1035DC001846FEF7B5F865AB1846FEF7B1F80DE0E6
:1035EC007E9B1B7A184606F055FD01467E9B1B7A86
:1035FC001A4604484FF022FB012300E00023184632
:10360C0078B070BDD0D2050000B585B003900291A2
:10361C000192039B9B6B002B01D1FEF78FF8039B50
:10362C009B6B3C21039898470346184605B05DF800
:10363C0004FB000000B58DB005900491049B5B6900
:10364C000B93049B1B69002B01D1FEF777F8049BAD
:10365C001B690A932D4B1B681A460499059824F094
:10366C00E6FB09902A4B1B681A460499059824F02E
:10367C00DEFB0890274B1B681A460499059824F02A
:10368C00E5FB0790079B1B7A012B0CD1079B029340
:10369C00089B0193099B00930A9B0B9A049905982C
:1036AC00FFF791FD2CE0079B1B7A092B03D0079B9E
:1036BC001B7A072B15D1079B0293089B0193099B3F
:1036CC0000930A9B0B9A04990598FFF70FFE03468B
:1036DC008DF81B309DF81B30002B10D09DF81B3043
:1036EC000FE0079B1B7A184606F0D4FC0146079B9B
:1036FC001B7A1A4608484FF0A1FA012301E000BFDB
:10370C00002318460DB05DF804FB00BF74D3050010
:10371C0078D305007CD30500D0D2050000B585B068
:10372C000390039800230093044B054A054924F0A9
:10373C002BFB00BF039805B05DF804FB413600007D
:10374C00A94300001536000090B08DED030ACDEDB5
:10375C00020A8DED011A03AB0A9302AB09938DF8A3
:10376C0018100A9B0893099B0793089B93ED007A0A
:10377C00079BD3ED007AB4EEE77AF1EE10FA4CBF6A
:10378C0001230023DBB2002B01D0099B01E00A9B33
:10379C0000BF00BF0F930F9B0E9301AB0D938DF8E1
:1037AC0014200D9B0C930E9B0B930C9B93ED007AAA
:1037BC000B9BD3ED007AB4EEE77AF1EE10FA4CBF26
:1037CC0001230023DBB2002B01D00D9B01E00E9BEB
:1037DC0000BF00BF1B6807EE903AB0EE670A10B04E
:1037EC00704730B59DB00390029101920093029BFB
:1037FC005A6847F6FF7300BF5B429A4201DCFDF743
:10380C009DFF029B9A6847F6FF7300BF5B429A428A
:10381C0001DCFDF793FF029B5B6847F6FF7200BF6C
:10382C00934201DBFDF78AFF029B9B6847F6FF7210
:10383C0000BF934201DBFDF781FF00231B938AE05D
:10384C00029B5B681B9A520001990A44B2F9002052
:10385C0013441A93029B9B681B9A520000990A44CA
:10386C00B2F9002013441993029B9B691A9A02FA2D
:10387C0003F31893029B9B69199A02FA03F31793AB
:10388C00029BD969029B1B6A1A461898FEF7C7FF60
:10389C001690029B596A029B9B6A1A461798FEF770
:1038AC00BEFF1590169A159B13441493029B19692D
:1038BC00029B5B691A461498FEF7B1FF0246029B05
:1038CC00DB6813440793029B03F13002029B2C33F9
:1038DC000C930C9B0B9307AB0A938DF818400B9B26
:1038EC0009930A9B0893099B1968089B1B689942CA
:1038FC00B4BF01230023DBB2002B01D00A9B01E0F3
:10390C000B9B00BF00BF12921193129B1093119B43
:10391C000F938DF814500F9B0E93109B0D930E9BD1
:10392C001A680D9B1B689A42B4BF01230023DBB2BB
:10393C00002B01D00F9B01E0109B00BF00BF1B6848
:10394C0013931B9B5B00209A1344139A12B21A8098
:10395C001B9B01331B931B9A039B9A42FFF670AF80
:10396C0000BF00BF1DB030BD00B585B00346ADF83B
:10397C00063003AB184600F0BFF80246BDF806301F
:10398C001380BDF80C30184605B05DF804FB000040
:10399C0070B586B003460091ADF80630009B002B45
:1039AC0005DA4FF4B37241494148FDF7C8FE009B5C
:1039BC001F2B05DD40F267123C493E48FDF7BFFE68
:1039CC004FF001024FF000030099A1F12006C1F164
:1039DC00200003FA01F502FA06F6354322FA00F04C
:1039EC00054302FA01F4A3B2013B9BB21BB2184689
:1039FC0000F024FB0346ADF81630002000F01EFB4F
:103A0C000346ADF81430012000F018FB0346ADF866
:103A1C001230BDF91620BDF906301146184600F0DB
:103A2C0016FB0346ADF81030BDF9163001211846CF
:103A3C0000F01EFB03461C46BDF91420BDF90630F0
:103A4C001146184600F022FB03461A46BDF9123007
:103A5C001946104600F0FBFA03461946204600F0C2
:103A6C0030FB0346ADF80E30BDF906300099184610
:103A7C0000F0FEFA03461C46BDF90E20BDF91030CD
:103A8C001146184600F02FFB03461A46BDF91230BA
:103A9C001946104600F0DBFA03461946204600F0A2
:103AAC0010FB0346184606B070BD00BFECD20500F3
:103ABC0054D3050064D3050010B582B0ADF80400F2
:103ACC00ADF8001001AB184600F016F80346B3F938
:103ADC0000406B46184600F00FF80346B3F900306F
:103AEC0019462046FEF704FD03461846FFF73CFF37
:103AFC000346184602B010BD82B00190019B1846D7
:103B0C0002B0704700B595B00390029101920093FA
:103B1C00019B002B01D1FDF711FE009B002B01D165
:103B2C00FDF70CFE0BAB039A04211846FEF78FFD34
:103B3C0005AB029A04211846FEF789FD0BAB0199DF
:103B4C00184600F0EBFA05AB0099184600F0E6FABF
:103B5C000023139331E00BAB13991846FEF71AF8B8
:103B6C00129005AB13991846FEF714F81190129A9F
:103B7C00119B9A421ED0129B012B0BD1019B139AC5
:103B8C000432002143F82210019B139A119943F837
:103B9C0022100FE0119B012B01D0FDF7CFFD009BF4
:103BAC00139A0432002143F82210009B139A1299A5
:103BBC0043F82210139B01331393139B032BCADD81
:103BCC0005AB1846FDF7BCFD0BAB1846FDF7B8FD71
:103BDC0015B05DF804FB84B08DED030ACDED020A3F
:103BEC000190019B039A5A63019B029A9A6300BF4E
:103BFC0004B0704710B52DED048BA2B00590049164
:103C0C00039202930EAB16AA02990498FFF77AFF5F
:103C1C0008AB299A04211846FEF719FD06AA07AB32
:103C2C001946059800F0A6FA0023219378E00023AA
:103C3C00209364E000231F9350E000231E933CE08C
:103C4C0016A81E9B00931F9B209A2199FEF7FCFD42
:103C5C0003469B00039A134493ED008A0EA81E9B07
:103C6C0000931F9B209A2199FEF7EEFD03469B00C3
:103C7C00289A1344D3ED007A38EE278ADDED078AB3
:103C8C009DED069A08A81E9B00931F9B209A2199D4
:103C9C00FEF72DFD03469B002A9AD418B0EE491A64
:103CAC00F0EE680AB0EE480AFFF74EFDF0EE407AEF
:103CBC00C4ED007A1E9B01331E9308AB03211846FA
:103CCC00FDF768FF02461E9B9342B4BF01230023FD
:103CDC00DBB2002BB4D11F9B01331F9308AB022125
:103CEC001846FDF757FF02461F9B9342B4BF0123B2
:103CFC000023DBB2002BA0D1209B0133209308AB17
:103D0C0001211846FDF746FF0246209B9342B4BFA3
:103D1C0001230023DBB2002B8CD1219B0133219397
:103D2C0008AB00211846FDF735FF0246219B934254
:103D3C00B4BF01230023DBB2002B7FF478AF08ABB8
:103D4C001846FDF7FDFC22B0BDEC048B10BD10B580
:103D5C0088B0039002910192009304AA05AB194616
:103D6C00039800F007FA0B9A00990298FEF735FDBC
:103D7C0006900023079324E0079B9B00019A1344B1
:103D8C0093ED007A079B9B000A9A1344D3ED007ABB
:103D9C0077EE277A9DED057ADDED046A079B9B0093
:103DAC000C9AD418B0EE661AF0EE470AB0EE670A19
:103DBC00FFF7CAFCF0EE407AC4ED007A079B0133A2
:103DCC000793079A069B9A42D6DB00BF00BF08B048
:103DDC0010BD84B0039002910192019B039ADA62A8
:103DEC00019B029A1A6300BF04B0704700B583B000
:103DFC000190019B002B01D1FDF7A0FC019B1B68DE
:103E0C00184603B05DF804FB00B583B00190019B2C
:103E1C00002B01D1FDF792FC019B1B68184603B0E7
:103E2C005DF804FB70B5B6B0059004910392029353
:103E3C000FAB17AA02990498FFF764FE09AB3B9AE3
:103E4C0004211846FEF703FC00233593E1E0002320
:103E5C003493CCE000233393B7E000233293A2E0F9
:103E6C00059B5C6817A8329B0093339B349A359959
:103E7C00FEF7EAFC03465B00039A1344B3F90030E7
:103E8C0023443193059B9C680FA8329B0093339B72
:103E9C00349A3599FEF7D8FC03465B003A9A1344E2
:103EAC00B3F9003023443093059B9B69319A02FA95
:103EBC0003F32F93059B9B69309A02FA03F32E931D
:103ECC00059BD969059B1B6A1A462F98FEF7A7FC20
:103EDC002D90059B596A059B9B6A1A462E98FEF7F6
:103EEC009EFC2C902D9A2C9B13442B93059B1969AB
:103EFC00059B5B691A462B98FEF791FC0246059BC5
:103F0C00DB6813440893059B03F13002059B2C33AB
:103F1C002393239B229308AB21938DF81C50229B57
:103F2C002093219B1F93209B19681F9B1B68994210
:103F3C00B4BF01230023DBB2002B01D0219B01E095
:103F4C00229B00BF00BF29922893299B2793289B73
:103F5C0026938DF81860269B2593279B2493259BED
:103F6C001A68249B1B689A42B4BF01230023DBB25E
:103F7C00002B01D0269B01E0279B00BF00BF1B68D4
:103F8C002A9309A8329B0093339B349A3599FEF7F8
:103F9C00AEFB03465B003C9A13442A9A12B21A8079
:103FAC00329B0133329309AB03211846FDF7F2FD26
:103FBC000246329B9342B4BF01230023DBB2002B99
:103FCC007FF44EAF339B0133339309AB0221184678
:103FDC00FDF7E0FD0246339B9342B4BF012300235F
:103FEC00DBB2002B7FF439AF349B0133349309AB34
:103FFC0001211846FDF7CEFD0246349B9342B4BF17
:10400C0001230023DBB2002B7FF424AF359B01335B
:10401C00359309AB00211846FDF7BCFD0246359BD4
:10402C009342B4BF01230023DBB2002B7FF40FAF0C
:10403C0009AB1846FDF784FB36B070BD82B0034661
:10404C00ADF80630BDF90630184602B0704782B0A4
:10405C0003460A46ADF806301346ADF80430BDF8F9
:10406C000620BDF8043013401BB2184602B070474E
:10407C0082B003460091ADF80630BDF90620009BD6
:10408C0042FA03F31BB2184602B0704700B583B076
:10409C0003460A46ADF806301346ADF80430BDF9B8
:1040AC000620BDF904309A42B4BF01230023DBB2D1
:1040BC001BB2184600F06DF80346184603B05DF8C5
:1040CC0004FB82B003460A46ADF806301346ADF841
:1040DC000430BDF80620BDF8043013449BB21BB26B
:1040EC00184602B0704700B583B003460A46ADF8D7
:1040FC0006301346ADF80430BDF90620BDF9043086
:10410C009A42CCBF01230023DBB21BB2184600F04D
:10411C0040F80346184603B05DF804FB00B585B0C3
:10412C000190009101230393032302931AE0029957
:10413C000198FDF72FFD0146009B029A43F82210CF
:10414C00009B029A0432039943F8221002990198B9
:10415C00FDF720FD0246039B02FB03F30393029B36
:10416C00013B0293029B002BE1DA00BF00BF05B0BC
:10417C005DF804FB84B0039002910192039B5A6B8F
:10418C00029B1A60039B9A6B019B1A6000BF04B0E0
:10419C00704700B583B00346ADF80630BDF9063064
:1041AC00002B04D0002000F007F8034600E00023A9
:1041BC00184603B05DF804FB82B00346ADF8063038
:1041CC00BDF80630DB431BB2184602B0704730B561
:1041DC0097B005900491039202930299039824F0EE
:1041EC0001FD034683F00103DAB21B9B1A701A9B84
:1041FC001B78092B04D01A9B1B78072B40F0BA8034
:10420C00039B1B695A421B9B9A62029B1B695A4275
:10421C001B9BDA621A9B1A691B9B1A631A9B1B78ED
:10422C00072B01D10F2200E014221B9B5A62039B27
:10423C0003F10C02029B0C330C920B930C9B0A9314
:10424C000B9B09938DF818400A9B0893099B0793C5
:10425C00089B93ED007A079BD3ED007AB4EEE77AD6
:10426C00F1EE10FA4CBF01230023DBB2002B01D07E
:10427C00099B01E00A9B00BF00BF1B68184657F062
:10428C005FFC02460B4657F027F802460B46CDE979
:10429C001423039BDB68184657F052FCDDE914230A
:1042AC0057F0D6F902460B46CDE91223029BDB6888
:1042BC00184657F045FCDDE9142357F0C9F90246BE
:1042CC000B46CDE910231B9B5B6A012202FA03F318
:1042DC00184657F0B3FB04460D461A9BDB6818468C
:1042EC0057F02EFC02460B462046294657F018F98B
:1042FC0002460B46DDE9140157F0AAF902460B46BB
:10430C00CDE90E231B9B03F114021B9B04331946AE
:10431C0010469DED120B35F043FA1B9B03F118026E
:10432C001B9B0833194610469DED100B35F038FADF
:10433C001B9B03F11C021B9B2033194610469DED61
:10434C000E0B35F02DFA049B19781B9B03F10C0214
:10435C001B9B1033009313461A9A059824F0ECFB20
:10436C0003468DF837309DF83730002B11D09DF86F
:10437C00373010E01A9B1B78012B0BD1049B18785B
:10438C001B9B03F134011B9B38331A4600F09CF83D
:10439C0000E000BF0023184617B030BD10B58CB03C
:1043AC0003900291029B1B69002B01D1FDF7C6F90A
:1043BC00029B5B69002B01D1FDF7C0F90398FDF757
:1043CC00BCFC0B900B9B1B6818331B6800220299DA
:1043DC000B9898470A900A9B002B0AD1039B5C69A7
:1043EC00344B00935623344A34490398A047012395
:1043FC005DE00B9B1B6818331B68012202990B981C
:10440C0098470990099B002B0AD1039B5C692C4BA4
:10441C0000935923284A29490398A047012346E0D1
:10442C000B9B1B681C331B68002202990B98984746
:10443C000890089B002B0AD1039B5C69214B0093CD
:10444C005C231D4A1D490398A04701232FE0029BC2
:10445C001B690793029B5B690693079B0193089B5F
:10446C000093099B0A9A06990398FFF7B0FE03463E
:10447C008DF817309DF81730002B02D09DF81730AF
:10448C0015E00B9B1B6824331B680A990B98984703
:10449C000B9B1B6824331B6809990B9898470B9B43
:1044AC001B6824331B6808990B98984700231846FF
:1044BC000CB010BDE0D3050080D30500C8D30500B7
:1044CC00F4D3050008D4050084B003460291019290
:1044DC008DF80F309DF80F30012B08D1029B4FF057
:1044EC0000021A60154A00BF019B1A6023E09DF878
:1044FC000F30032B07D1029B4FF000021A60019B77
:10450C000F4A1A6017E09DF80F30022B07D1029B5F
:10451C000C4A1A60019B4FF07E521A600BE0DFEDE3
:10452C000A7AF1EE677A00BF029BC3ED007A034A68
:10453C0000BF019B1A6000BF04B07047FFFF7F7F74
:10454C000000C040000080BFFFFF7F7F30B59DB0F2
:10455C000390029101920093039BDA6A039B1B6BFD
:10456C009A4201DDFDF7EAF8039B5B685B426FF052
:10457C007F0200BF934201DAFDF7E0F8039B5B6812
:10458C005B427F2200BF934201DDFDF7D7F8029812
:10459C00FDF73EFB0346189300231B938FE0039B10
:1045AC005B681793039B9B69179A02FA03F31693A4
:1045BC00039BD969039B1B6A1A461698FEF72FF9C1
:1045CC001A900023199322E0039B5B68199A9200BE
:1045DC0000990A4411681B9A0A4492F9002013446A
:1045EC001493039B9B69149A02FA03F31393039B92
:1045FC00D969039B1B6A1A461398FEF710F912909F
:10460C001A9A129B13441A93199B01331993199AF2
:10461C00019B9A42D8D3039B1969039B5B691A4689
:10462C001A98FEF7FCF80246039BDB6813440693CA
:10463C00039B03F13002039B2C330B930B9B0A93CC
:10464C0006AB09938DF814400A9B0893099B0793BA
:10465C00089B1968079B1B689942B4BF0123002370
:10466C00DBB2002B01D0099B01E00A9B00BF00BF0D
:10467C0011921093119B0F93109B0E938DF8105069
:10468C000E9B0D930F9B0C930D9B1A680C9B1B6838
:10469C009A42B4BF01230023DBB2002B01D00E9B46
:1046AC0001E00F9B00BF00BF1B681593209A1B9B5A
:1046BC001344159A52B21A701B9B01331B931B9A0D
:1046CC00189B9A42FFF46BAF00BF00BF1DB030BD0A
:1046DC0082B00190019B1B68002B03D0019B1B68CF
:1046EC001B6800E00023184602B0704782B00190AE
:1046FC00019B5B68002B03D0019B5B681B6800E08F
:10470C000023184602B0704730B59BB00590049159
:10471C000498FFF7DDFF1890189B012B0ADC059B12
:10472C005C69904B009333238F4A90490598A047BE
:10473C000123E5E10498FFF7D9FF0346012B14BFD1
:10474C0001230023DBB2002B13D0059B5C6904987A
:10475C00FFF7CCFF0346012203920293844B019393
:10476C00844B00933423804A83490598A047012346
:10477C00C6E10598FDF7E1FA1790179B1B681833F3
:10478C001B6800220499179898471690169B002BCB
:10479C000AD1059B5C69794B00933923724A7349A2
:1047AC000598A0470123ABE1179B1B681C331B68C2
:1047BC0000220499179898471590159B002B0AD145
:1047CC00059B5C696E4B00933C23674A67490598CF
:1047DC00A047012394E1159B1A78169B1B789A42EB
:1047EC001AD0059B5C69159B1B78184605F052FC8A
:1047FC000546169B1B78184605F04CFC03460393A4
:10480C000295604B0193604B00933F23564A5F49DE
:10481C000598A047012373E10123199381E0179BAD
:10482C001B6818331B68199A0499179898470890B5
:10483C00089B002B0AD1059B5C69554B00934223C6
:10484C00494A4A490598A047012359E10899169805
:10485C0024F0C8F9034683F00103DBB2002B0AD025
:10486C00059B5C694B4B009343233F4A3F4905989A
:10487C00A047012344E1169B1A78089B1B789A42A7
:10488C001AD0059B5C69169B1B78184605F002FC38
:10489C000546089B1B78184605F0FCFB0346039362
:1048AC0002953D4B0193374B009344232E4A3749D5
:1048BC000598A047012323E1169B1B78092B26D1D1
:1048CC00169B1A69089B1B699A420AD0059B5C6966
:1048DC00324B00934823244A24490598A0470123CE
:1048EC000EE1169B93ED037A089BD3ED037AB4EE9D
:1048FC00677AF1EE10FA0AD0059B5C69284B00939D
:10490C004A23194A19490598A0470123F8E0179B37
:10491C001B6824331B68089917989847199B013317
:10492C001993199A189B9A42FFF679AF159B1B782D
:10493C00012B37D1189B9B000A93059B1B6C07AA74
:10494C000A990598984703468DF827309DF827302B
:10495C00002B02D09DF82730D2E0079B1A46049B0F
:10496C001A61BEE078D405001CD4050060D40500A3
:10497C00A4D40500A8D4050088D40500BCD4050037
:10498C00DCD405000CD5050028D50500F0D40500B5
:10499C0038D505004CD5050078D5050084D5050023
:1049AC00C8D50500159B1B78092B40F08E80059B04
:1049BC009B6B2821059898470246049B1A61049B1F
:1049CC001B691493189B9B001393059B1B6C149AE7
:1049DC00243213990598984703468DF84B309DF86F
:1049EC004B30002B02D09DF84B3089E0169B1B6995
:1049FC005A42149B9A60159B1A69149BDA60149B9B
:104A0C0014221A62169BDB68184657F099F8024676
:104A1C000B4656F061FC02460B46CDE91023169B63
:104A2C00DB68184657F08CF8DDE9102356F010FEC1
:104A3C0002460B46CDE90E23149B1B6A012202FA97
:104A4C0003F3184656F0FAFF04460D46159BDB6837
:104A5C00184657F075F802460B462046294656F084
:104A6C005FFD02460B46DDE9100156F0F1FD0246F2
:104A7C000B46CDE90C23149B03F11002149B183345
:104A8C00194610469DED0E0B34F08AFE149B03F173
:104A9C001402149B1C33194610469DED0C0B34F07C
:104AAC007FFE149A149B043300931346159A00212D
:104ABC00059824F041F803468DF82F309DF82F30DF
:104ACC00002B0ED09DF82F301AE0159B1B78184642
:104ADC0005F0E0FA034619460B484EF0AFF80123F7
:104AEC000EE0179B1B6824331B6816991798984780
:104AFC00179B1B6824331B6815991798984700233C
:104B0C0018461BB030BD00BF00D6050000B583B001
:104B1C000190009100990198FFF7F6FD03461846A5
:104B2C0003B05DF804FB000000B585B00190009166
:104B3C0000220099019823F089F90390039B1B7ABA
:104B4C00012B05D1039A0099019800F033F815E078
:104B5C00039B1B7A092B05D1039A0099019800F04D
:104B6C0051F80BE0039B1B7A184605F093FA0346A9
:104B7C00194605484EF062F8012300E00023184660
:104B8C0005B05DF804FB00BF00D6050000B585B08C
:104B9C000390039800230093044B054A002123F053
:104BAC00F3F800BF039805B05DF804FB354B00002B
:104BBC00194B000010B58EB003900291019202982F
:104BCC00FFF786FD0D90029B1B690C930C9A0299C2
:104BDC00039800F060F80B9005AB0199184623F090
:104BEC0074F90D9C0198FCF717FF034605A80B9A66
:104BFC00214600F07EF805AB1846FCF7A1FD00BF7E
:104C0C000EB010BD10B5AAB0059004910392049893
:104C1C00FFF75EFD2990049B1B692893289B5B6A18
:104C2C001A460499059800F0A1F82790289B1B6A56
:104C3C000C93289B9B680793289B1B690D93289BBF
:104C4C009B690E93289BDB680993289B5B690A93ED
:104C5C00289BDB690B93289B1868289B5B6806AA2A
:104C6C001946FFF7B6F821AB0399184623F02DF936
:104C7C00299C0398FCF7ECFE034621A906A8009397
:104C8C00279B2246FFF762FC21AB1846FCF758FD28
:104C9C0000BF2AB010BD10B58AB0039002910192EA
:104CAC000298FFF715FD0890039B5B6C0199039824
:104CBC0098470790079B06930023099311E0099AE4
:104CCC000299039823F0B3F80590099B9B00069A70
:104CDC00D4180598FCF792FE03462360099B013318
:104CEC000993099A089B9A42E9DB069B18460AB07D
:104CFC0010BD00B589B00390029101920093039806
:104D0C00FCF786FF034604930023079325E04FF03E
:104D1C00000306930023059312E0059B9B00019A68
:104D2C0013441A68079B9B001344D3ED007A9DED46
:104D3C00067A77EE277ACDED067A059B013305933B
:104D4C00059A029B9A42E8D3079B9B00009A134456
:104D5C00069A1A60079B01330793079A049B9A42A1
:104D6C00D5D300BF00BF09B05DF804FB10B58AB005
:104D7C000390029101920298FFF7AAFC0890039B02
:104D8C005B6C0199039898470790079B0693002347
:104D9C00099311E0099A0299039823F048F80590B9
:104DAC00099B9B00069AD4180598FCF743FE034612
:104DBC002360099B01330993099A089B9A42E9DB0A
:104DCC00069B18460AB010BD10B493B00390029124
:104DDC000192039B1193119B1093109B0F93109BAB
:104DEC0000221A60109B00225A60109B083300228C
:104DFC0005920E930E9A05AB0D930D9B0C920B9393
:104E0C000B9B0A930C9B00221A6006AB09930E9B1A
:104E1C0008938DF81040089B079300BF039813B0BC
:104E2C005DF8044B704710B491B001900091019B58
:104E3C000F930F9B0E930E9B0D930E9B00221A60EB
:104E4C000E9B00225A600E9B0833002203920C9397
:104E5C000C9A03AB0B930B9B0A920993099B089337
:104E6C000A9B00221A6004AB07930C9B06938DF8E7
:104E7C000840069B059300BF019811B05DF8044BE8
:104E8C00704710B491B001900091019B0F930F9B50
:104E9C000E930E9B0D930E9B00221A600E9B00220C
:104EAC005A600E9B0833002203920C930C9A03ABAE
:104EBC000B930B9B0A920993099B08930A9B002264
:104ECC001A6004AB07930C9B06938DF80840069B65
:104EDC00059300BF019811B05DF8044B70470000BA
:104EEC0082B00190034A019B1A60019B184602B0E4
:104EFC00704700BF08D9050000B583B00190019838
:104F0C00FFF7EEFF019857F01DFF019B184603B009
:104F1C005DF804FB82B001900123184602B0704783
:104F2C0000B585B0039002910192039B1B6820335E
:104F3C001B680299039898470346184605B05DF81C
:104F4C0004FB00B585B0039002910192039B1B6892
:104F5C0024331B680299039898470346184605B0FA
:104F6C005DF804FB00B583B00190064A019B1A6002
:104F7C00019B1846FFF7B4FF019B184603B05DF880
:104F8C0004FB00BFD4D8050000B583B00190019894
:104F9C00FFF7E8FF019857F0D5FE019B184603B0C8
:104FAC005DF804FB00B583B00190064A019B1A60C2
:104FBC00019B1846FFF7D6FF019B184603B05DF81E
:104FCC0004FB00BFA0D8050000B583B00190019888
:104FDC00FFF7E8FF019857F0B5FE019B184603B0A8
:104FEC005DF804FB10B5DCB05CABA3F5B6731860D0
:104FFC005CABA3F5B6731B68184600F019FBC54AE9
:10500C005CABA3F5B6731B681A605CABA3F5B67307
:10501C001B68184600F02CFB5CABA3F5B6731C6840
:10502C005CABA3F5B4731846FEF778FB02AB1946DC
:10503C00204600F031FB5CABA3F5B6731B68184639
:10504C0000F03CFB5CABA3F5B6731B68184600F094
:10505C0049FB5CABA3F5B6731B68184600F056FB16
:10506C005CABA3F5B6731B68184600F063FB5CAB36
:10507C00A3F5B6731C685CABA3F5A273184633F0AA
:10508C0031F90BAB1946204600F068FB5CABA3F57D
:10509C00B6731B68184600F073FB5CABA3F5B673D4
:1050AC001B68184600F080FB5CABA3F5B6731B685D
:1050BC00184600F08DFB5CABA3F5B6731B68184665
:1050CC0000F09AFB5CABA3F5B6731B68184600F0B6
:1050DC00A7FB5CABA3F5B6731B68184600F0B4FBDA
:1050EC005CABA3F5B6731B68184600F0C1FB5CAB58
:1050FC00A3F5B6731B68184600F0CCFB5CABA3F5AC
:10510C00B6731C685CABA3F5907318460CF0BAFB35
:10511C0014AB1946204600F0D1FB5CABA3F5B6737B
:10512C001B68184600F0DCFB5CABA3F5B6731B6880
:10513C00184600F0E9FB5CABA3F5B6731B68184688
:10514C0000F0F6FB5CABA3F5B6731C681DAB184600
:10515C000FF0A0F81DAB1946204600F0FDFB5CAB30
:10516C00A3F5B6731B68184600F008FC5CABA3F5FE
:10517C00B6731B68184600F015FC5CABA3F5B67350
:10518C001B68184600F020FC5CABA3F5B6731B68DB
:10519C00184600F02DFC5CABA3F5B6731B681846E3
:1051AC0000F03AFC5CABA3F5B6731B68184600F034
:1051BC0047FC5CABA3F5B6731B68184600F058FCB3
:1051CC005CABA3F5B6731B68184600F065FC5CABD2
:1051DC00A3F5B6731B68184600F072FC5CABA3F524
:1051EC00B6731B68184600F07FFC5CABA3F5B67376
:1051FC001B68184600F08CFC5CABA3F5B6731B68FF
:10520C00184600F099FC5CABA3F5B6731C6826AB92
:10521C0018461FF0C7FE26AB1946204600F0A0FC2E
:10522C005CABA3F5B6731B68184600F0ABFC5CAB2B
:10523C00A3F5B6731B68184600F0B8FC5CABA3F57D
:10524C00B6731B68184600F0C5FC5CABA3F5B673CF
:10525C001B68184600F0D2FC5CABA3F5B6731B6858
:10526C00184600F0DFFC5CABA3F5B6731B68184660
:10527C0000F0ECFC5CABA3F5B6731B68184600F0B1
:10528C00F9FC5CABA3F5B6731B68184600F006FD81
:10529C005CABA3F5B6731B68184600F013FD5CAB52
:1052AC00A3F5B6731B68184600F020FD5CABA3F5A4
:1052BC00B6731B68184600F02DFD5CABA3F5B673F6
:1052CC001B68184600F03AFD5CABA3F5B6731B687F
:1052DC00184600F047FD5CABA3F5B6731B68184687
:1052EC0000F054FD5CABA3F5B6731B68184600F0D8
:1052FC0061FD5CABA3F5B6731B68184600F06EFD40
:10530C005CABA3F5B6731B68184600F07BFD5CAB79
:10531C0002E000BF6CD80500A3F5B6731C682FAB78
:10532C00184632F0F5FF2FAB1946204600F07EFDF3
:10533C005CABA3F5B6731B68184600F089FD5CAB3B
:10534C00A3F5B6731B68184600F096FD5CABA3F58D
:10535C00B6731B68184600F0A3FD5CABA3F5B673DF
:10536C001B68184600F0B0FD5CABA3F5B6731C6867
:10537C0038AB18462EF000FD38AB1946204600F02D
:10538C00B7FD5CABA3F5B6731B68184600F0C2FD05
:10539C005CABA3F5B6731B68184600F0CFFD5CAB95
:1053AC00A3F5B6731B68184600F0DCFD5CABA3F5E7
:1053BC00B6731C6841AB184631F05CF841AB19462A
:1053CC00204600F0E3FD5CABA3F5B6731B681846F2
:1053DC0000F0EEFD5CABA3F5B6731B68184600F04D
:1053EC00FBFD5CABA3F5B6731B68184600F008FE1A
:1053FC005CABA3F5B6731B68184600F015FE5CABEE
:10540C00A3F5B6731B68184600F022FE5CABA3F53F
:10541C00B6731B68184600F02FFE5CABA3F5B67391
:10542C001B68184600F03CFE5CABA3F5B6731B681A
:10543C00184600F049FE5CABA3F5B6731B68184622
:10544C0000F056FE5CABA3F5B6731B68184600F073
:10545C0063FE5CABA3F5B6731B68184600F070FED8
:10546C005CABA3F5B6731B68184600F07DFE5CAB15
:10547C00A3F5B6731B68184600F08AFE5CABA3F567
:10548C00B6731B68184600F097FE5CABA3F5B673B9
:10549C001B68184600F0A4FE5CABA3F5B6731B6842
:1054AC00184600F0B1FE5CABA3F5B6731C684AABB2
:1054BC0018463DF0FFFD4AAB1946204600F0B8FEF9
:1054CC005CABA3F5B6731B68184600F0C3FE5CAB6F
:1054DC00A3F5B6731B68184600F0D0FE5CABA3F5C1
:1054EC00B6731B68184600F0DDFE5CABA3F5B67313
:1054FC001B68184600F0EAFE5CABA3F5B6731B689C
:10550C00184600F0F7FE5CABA3F5B6731B681846A3
:10551C0000F004FF5CABA3F5B6731B68184600F0F3
:10552C0011FF5CABA3F5B6731B68184600F01EFFA9
:10553C005CABA3F5B6731B68184600F02BFF5CAB95
:10554C00A3F5B6731B68184600F038FF5CABA3F5E7
:10555C00B6731B68184600F045FF5CABA3F5B67339
:10556C001C6853AB184645F02FFC53AB194620462C
:10557C0000F04CFF5CABA3F5B6731B68184600F04B
:10558C0057FF5CABA3F5B6731B68184600F064FFBD
:10559C005CABA3F5B6731B68184600F071FF5CABEF
:1055AC00A3F5B6731B68184600F07EFF5CABA3F541
:1055BC00B6731B68184600F08BFF5CABA3F5B67393
:1055CC001B68184600F098FF5CABA3F5B6731B681C
:1055DC00184600F0A5FF5CABA3F5B6731B68184624
:1055EC0000F0B2FF5CABA3F5B6731B6818465CB059
:1055FC0010BD00BF82B00190034A019B1A60019B51
:10560C00184602B0704700BF08D9050000B583B03A
:10561C000190019B1846FFF7EDFF044A019B1A60AD
:10562C00019B184603B05DF804FB00BFD4D80500FD
:10563C0000B583B00190019B1846FFF7E7FF0B4ABA
:10564C00019B1A60019B03F580531A460023C2F894
:10565C000432019B03F580531A460023C2F8083626
:10566C00019B184603B05DF804FB00BFA0D80500F1
:10567C0000B58DB0019003AB184614F001FF03AADE
:10568C00044B6521019800F073FF034618460DB0DA
:10569C005DF804FB59E8010000B583B0019000915E
:1056AC00054B009A0021019800F062FF0346184652
:1056BC0003B05DF804FB00BF6DE8010000B58DB0D0
:1056CC00019003AB1846FFF761FA03AA044B6A2159
:1056DC00019800F04DFF034618460DB05DF804FB31
:1056EC00ADE9010000B58DB0019003AB184601F097
:1056FC00A3F903AA044B3821019800F039FF0346A3
:10570C0018460DB05DF804FBC1E9010000B58DB081
:10571C00019003AB184601F0A1F903AA044B4F21E9
:10572C00019800F025FF034618460DB05DF804FB08
:10573C00F9EA010000B58DB0019003AB184601F0F9
:10574C0065FD03AA044B9021019800F011FF03465C
:10575C0018460DB05DF804FB31EC010000B583B0C8
:10576C0001900091054B009A0121019800F000FF77
:10577C000346184603B05DF804FB00BF2D0302007E
:10578C0000B58DB0019003AB184601F07BFF03AA66
:10579C00044B2521019800F0EBFE034618460DB092
:1057AC005DF804FB43EC010000B58DB0019003AB38
:1057BC00184602F03BFB03AA044B9121019800F020
:1057CC00D7FE034618460DB05DF804FB55EC0100FE
:1057DC0000B58DB0019003AB184602F083FE03AA0E
:1057EC00044B8221019800F0C3FE034618460DB00D
:1057FC005DF804FB67EC010000B58DB0019003ABC4
:10580C00184603F0A1F803AA044B8121019800F07B
:10581C00AFFE034618460DB05DF804FB79EC0100B1
:10582C0000B58DB0019003AB184603F0D3F903AA71
:10583C00044B3521019800F09BFE034618460DB031
:10584C005DF804FB95ED010000B58DB0019003AB44
:10585C00184604F05BF903AA044B6821019800F088
:10586C0087FE034618460DB05DF804FB05EF0100FA
:10587C0000B583B0019004F023FA03461A4604499C
:10588C00019800F00DFF0346184603B05DF804FBC9
:10589C00B8D6050000B58DB0019003AB184609F0E1
:1058AC0069FE03AA044B0221019800F061FE034635
:1058BC0018460DB05DF804FB19EF010000B583B07C
:1058CC0001900091054B009A0321019800F050FEC5
:1058DC000346184603B05DF804FB00BF59F0010005
:1058EC0000B58DB0019003AB184614F0F3FD03AA7C
:1058FC00044B6C21019800F03BFE034618460DB09A
:10590C005DF804FB35F3010000B58DB0019003ABDD
:10591C0018460DF0CBFA03AA044B8021019800F035
:10592C0027FE034618460DB05DF804FB01F201009A
:10593C0000B58DB0019003AB18460DF0DFFD03AA46
:10594C00044B0521019800F013FE034618460DB0D8
:10595C005DF804FB49F3010000B583B001900091A0
:10596C00054B009A0421019800F002FE03461846EC
:10597C0003B05DF804FB00BF65F4010000B58DB009
:10598C00019003AB18460FF099F803AA044B0621BB
:10599C00019800F0EDFD034618460DB05DF804FBD0
:1059AC0025F6010000B583B0019011F0C5FE034649
:1059BC001A460449019800F073FE0346184603B0DA
:1059CC005DF804FBC8D6050000B58DB0019003ABA3
:1059DC00184613F097FA03AA044B2A21019800F0F9
:1059EC00C7FD034618460DB05DF804FB39F60100FF
:1059FC0000B58DB0019003AB184616F003FC03AA5A
:105A0C00044B6F21019800F0B3FD034618460DB00E
:105A1C005DF804FB61F7010000B58DB0019003AB9C
:105A2C00184605F06BFC03AA044B4721019800F0C3
:105A3C009FFD034618460DB05DF804FB73F701009B
:105A4C0000B585B0019016F0D1FC0390039B002BA0
:105A5C0009D016F0CFFC0346039A1946019800F0C2
:105A6C001FFE034600E00023184605B05DF804FB5A
:105A7C0000B58DB0019003AB184616F065FE03AA75
:105A8C00044B2F21019800F073FD034618460DB00E
:105A9C005DF804FB85F7010000B58DB0019003ABF8
:105AAC00184617F0F3F803AA044B4621019800F0AE
:105ABC005FFD034618460DB05DF804FB97F7010037
:105ACC0000B58DB0019003AB184617F0CFFA03AABE
